:020000040800F2
:1000000000400020194F00087529000877290008D2
:1000100000000000000000000000000000000000E0
:100020000000000000000000000000007929000826
:1000300000000000000000007B2900087D29000866
:10004000694F0008694F0008694F0008694F0008B0
:10005000694F0008694F0008694F0008694F0008A0
:1000600085290008694F000899290008694F000890
:10007000694F0008694F0008694F0008694F000880
:10008000694F0008694F0008694F0008694F000870
:10009000694F0008694F0008694F0008694F000860
:1000A000694F0008694F0008694F0008694F000850
:1000B000694F0008694F0008694F0008694F000840
:1000C0000448054B10B5834203D0044B002B00D0ED
:1000D000984710BD301A0020301A002000000000A0
:1000E00006480749091A8B10C90FC91810B54910DD
:1000F00003D0044B002B00D0984710BD301A0020CD
:10010000301A00200000000010B5074C2378002BA7
:1001100009D1FFF7D5FF054B002B02D0044800E0C2
:1001200000BF0123237010BD301A00200000000022
:100130006C4F0008054B10B5002B03D0044905484F
:1001400000E000BFFFF7CCFF10BDC046000000007C
:10015000341A00206C4F000870B50C4D0C4E761B05
:10016000B61005D0002408CD01349847A642FAD134
:1001700004F0FCFE074D084E761BB61005D0002497
:1001800008CD01349847A642FAD170BDA06B000893
:10019000A06B0008A06B0008A46B0008F0B5050078
:1001A00083074AD0541E002A44D0CEB20300032253
:1001B00002E00135013C3DD301332E701342F8D1EA
:1001C000032C2FD9FF220A40150215432A04154398
:1001D0000F2C35D92700103F3F093E01B4461E00C1
:1001E0001A0010366644156055609560D56010326F
:1001F000B242F8D10F260C2201373F012640DB190D
:100200003700224217D03E1FB608B400A4461A0099
:100210001C1D644420C2A242FCD103240136B60056
:100220009B193C40002C05D0C9B21C191970013330
:100230009C42FBD1F0BD3400F4E714000300BFE79B
:100240002700E0E70CB400B59DB002910691094982
:100250001EAB07910491084904CB059102A90193B3
:1002600000F01EF90023029A13701DB008BC02B002
:100270001847C046FFFFFF7F0802FFFF0EB400B51E
:100280000B499CB0079104910A491DAB05910A499D
:1002900004CB02900690086802A9019300F000F9CF
:1002A0000023029A13701CB008BC03B01847C04664
:1002B000FFFFFF7F0802FFFF00000020F0B5464669
:1002C0004F46D646C0B58E6881460C0090461D004C
:1002D00008689E4239D890228B89D200134211D1EE
:1002E00035002A00414600F0A9FCA36800209E1BAF
:1002F0002368A6609C46654425601CBC90469946D0
:10030000A246F0BD0969421A92466269681C57000C
:10031000BF18FA0FD7197F1050443A00B84201D9DC
:10032000070002005B0512D51100484600F03AFDB7
:10033000061E1FD05246216900F02CFCA389124AE8
:10034000134080221343A38106E01E00C9E74846FC
:1003500000F08EFD061E09D0300053465044676100
:10036000FF1A266120602E00A760BAE7216948467F
:1003700000F0C2FC0C234A46136040220120A389EE
:1003800040421343A381B8E77FFBFFFFF0B54E4621
:100390004546DE465746E0B5936883B001900D00B0
:1003A0009146002B6BD0176808688C6844E0902257
:1003B000AB89D20013422ED02969421A934668694C
:1003C00042001218D00F8218701C521058449046E8
:1003D000904201D9804602008020C000034237D0FD
:1003E0001100019800F0DEFC041E53D05A46296922
:1003F00000F0D0FBAB89294A134080221343AB8124
:10040000434620005A462C61B046340058446B6184
:100410009B1A2860AB604246514600F00FFCAB6867
:100420001C1B2B68AC6043442B6018004B469B6838
:100430009E1B4B469E6022D03B687E689A460837DA
:10044000A046002EF8D0A642B1D23400B046E2E772
:10045000019800F00DFD041ED2D1019C29692000F5
:1004600000F04AFC0C2323604022AB890120134397
:10047000AB814A46002340429360536003E000236F
:100480004A460020536003B03CBC90469946A246C1
:10049000AB46F0BD0C23019A1360E5E77FFBFFFF3D
:1004A000F0B54E46DE4657464546E0B5A1B004904D
:1004B00003911C008B8991461B0604D50B6905939B
:1004C000002B00D119E1002308AD6B6120336B765E
:1004D0001033AB762F3B98464B461B780794924FD0
:1004E000002B00D186E0252B00D104E14E4603E02D
:1004F000252B00D18BE026007378741C002BF7D1DC
:100500004B46E31A9A4675D053464A4603990498D7
:10051000FFF7D4FE431C6DD06B6953446B61737855
:10052000002B67D00122002352426A60443201341A
:100530002B60EB60AB60AB54AB6506E04346C01B81
:10054000834034002A6813432B6021780522380049
:1005500000F0E0FA661C0028F0D12B68B246DA06FB
:1005600002D543222021A9541A0702D543222B2168
:10057000A95421782A2950D1079A111D1268079190
:10058000002A00DA9AE0EA606178A61C2E295CD085
:10059000664B03221800994600F0BCFA002800D1EF
:1005A00071E04B46C01A402383402A6831781343D8
:1005B0002B600622731C5E489946297600F0AAFA41
:1005C00000286AD05B4B002B00D170E007AB009392
:1005D000039A594B2900049800E000BF83465B460C
:1005E000013307D06B695B446B614B461B78002B72
:1005F00000D078E7039B9B895B0600D58CE0686997
:1006000021B03CBC90469946A246AB46F0BD4B4655
:10061000E31A9A4600D185E776E70A00303AA24607
:10062000092AB3D8EB68180001E0340001368300D2
:100630001B1831785B0098180A00303A092AF4D95F
:10064000B246E860A61C2E29A2D1534659782A2921
:100650003AD1079B1A1D079252469178D61C022266
:1006600094461B68E2446B60002B00DB90E701239B
:100670005B426B602D4B03221800994600F04AFA4A
:10068000002800D08DE7B14656463178062228482A
:10069000297600F03FFA002894D107AB0093039A23
:1006A000254B2900049800F0E1F8834697E70722DC
:1006B000079B073393430833079393E75242EA605B
:1006C000022213432B605FE70A000023303A6B607D
:1006D0001800092A01D91CE01E0083001B1871783C
:1006E0005B0098180A00303A731C092AF4D99A461C
:1006F000023668604CE74C4614E7402100F052FB9C
:10070000039B18601861002809D04023039A5361A5
:10071000D9E6B24601363BE70120404270E70C23A0
:10072000049A013813606BE7646B00086C6B000877
:10073000706B000800000000BD020008F0B54F46D5
:100740004646D646C0B51F00089B914698468A6823
:100750000B6906000C00934200DA13004A4613604E
:100760004322A25C002A02D04A4601331360236868
:100770009A065AD54B461B6806209A1C4B461A60AF
:1007800023681900184208D1E16800258A1A192146
:100790008A461900A244002A3FDC4323E35C5A1E28
:1007A00093418A060AD53020E1184331087045216B
:1007B0005A1C615CA21843320233117022003900C6
:1007C00043323000C047431C19D006232068A2687A
:1007D00021690340042B30D08A423ADD0023994638
:1007E000521A91441A34002502E001354D4530DAA1
:1007F0000123220039003000C047431CF5D10120FD
:1008000040421CBC90469946A246F0BD4B46E26869
:100810001B680135D31AAB4220DD01235246390053
:100820003000C047431CF1D1E9E706221A4212D03A
:100830004323E35C5A1E9341C0E74B46E0681B68C4
:10084000C31AD843C017184081468A42C8DC002B1F
:10085000C8DC0020D5E74A46126895E743232168A3
:10086000E35C5A1E93418A069DD4A7E7F0B557462C
:100870009A4643239C464E464546DE468C44634694
:10088000E0B587B003930B7E914680460C00109A2A
:100890006E2B00D1D8E000D871E0732B00D11AE1A3
:1008A00000D881E0752B00D1FFE0782B00D00BE160
:1008B0000B6878204521605494498B46116840C9E3
:1008C0001160180603D4580601D53604360CDA0731
:1008D00002D52022134323601027002E00D1C2E04E
:1008E00043230022E2546368A360002B00DAC5E0D2
:1008F0000422216891432160002E00D083E0002B68
:1009000000D0BDE0039D082F00D18CE0039B5B1B52
:100910002361534605AA009321004B464046FFF74A
:100920000DFF431C22D023692A0049464046D04788
:10093000431C1BD022680598E368920700D47FE02F
:100940001A1A002A00DC7BE026000025193606E092
:10095000E368059801351A1AAA4200DC70E0012309
:10096000320049464046D047431CF1D10120404265
:1009700007B03CBC90469946A246AB46F0BD632BFF
:1009800000D184E01FD8002B69D0582B00D09BE009
:10099000452163545E4923688B46116840C9116044
:1009A000180600D48FE792E76F2B7ED0702B00D013
:1009B0008AE02023096878200B4345212360605496
:1009C00052498B467AE7642B01D0692B7CD11168A0
:1009D0002368081D10601D064AD50A681600002A03
:1009E00003DB4B4B0A279B467DE743222D21A15475
:1009F00062687642A260002A02DB042293432360ED
:100A0000434B0A279B46039D00E006003900300057
:100A100000F02CFB5B465B5C013D2B70BE42F4D2C8
:100A2000082F00D072E72368DB0700D46EE7636805
:100A30002269934200DD69E73023013D2B7065E7B1
:100A4000984295DA180093E7136809681D1D6069DC
:100A500015601B680E0601D449064BD418600023AC
:100A6000039D236155E7202322689A43226037E7DC
:100A70005D06B2D500228E5E3200B0E7002EC2D1F4
:100A80005B4625001A7842234235E2543BE713685F
:100A90002500191D11601A684223E254413B42357A
:100AA000236143230022E25433E7116820680D1DBF
:100AB0001560060601D440061ED40E686F2B1DD0AB
:100AC000134B0A279B460BE742222500A354012320
:100AD00042352361E5E71368191D11601D686268DE
:100AE0000021280000F016F800280BD0401B6060A1
:100AF0002061D6E71880B2E70E88DFE7044B0827AD
:100B00009B46EDE660682061CBE7C0468C6B000831
:100B1000786B000870B5CDB2830734D0531E002A1D
:100B20001BD00278AA4219D0032404E0013B14D35D
:100B30000278AA4212D001302042F7D1032B0ED8FE
:100B4000002B0AD00278AA4208D0C31802E002782B
:100B5000AA4203D001308342F9D1002070BDFF22A8
:100B60000C06240C114021430C04084E0C4302686F
:100B700007496240511891433142E3D1043B0430AC
:100B8000032BF4D8DCE71300D8E7C04680808080D0
:100B9000FFFEFEFEF0B5C64600B50F2A43D90B0096
:100BA000032603431E400C000300002E40D1150015
:100BB000103D2D09AC462D01A846804400E03B00C5
:100BC000676825685F60E7681D60DF601F00A568D3
:100BD00010379D6010344345F1D165460F230C2436
:100BE00001352D01491913404519144223D08C5960
:100BF000AC5104369C1B032CF9D80324043B9B08FE
:100C000001339B002240ED18C918561E002A07D058
:100C1000002300E02300CA5C5C1CEA549E42F9D128
:100C200004BC9046F0BD0500561E002AF0D1F7E73F
:100C3000561E0500ECE71A00F6E7C046F0B5C646BA
:100C400000B588420CD98B18984209D2531E002A4D
:100C500003D0CA5CC254013BFBD204BC9046F0BD39
:100C60000F2A0CD80500561E002AF6D0002300E0FB
:100C70002300CA5C5C1CEA549E42F9D1EDE70B00EC
:100C8000032603431E400C000300002E2ED1150046
:100C9000103D2D09AC462D01A846804400E02B00F4
:100CA0001D00276810351F6067685F60A7689F6038
:100CB000E7681034DF604345F1D165460F230C240B
:100CC00001352D01491913404519144211D08C5991
:100CD000AC5104369C1B032CF9D80324043B9B081D
:100CE00001339B00ED18C9182240BCE7561E0500D1
:100CF000BCE71A00B7E7C04670B50500002915D05B
:100D00000C1F2368002B27DB280000F0EBF8244B96
:100D10001A68002A05D0A2420CD9216860188242C4
:100D200024D0626028001C6000F0DEF870BDA34291
:100D300003D81A005368002BF9D111685018A0424B
:100D40001BD027D821686018834207D063605460A5
:100D5000280000F0C9F8E9E7E418D5E718685B68EF
:100D600084466144216063605460F1E71068526812
:100D70008446614421606260D4E7206809185018F5
:100D800011608342E4D118685B6884466144116055
:100D90005360DDE70C2328002B6000F0A5F8C5E7C1
:100DA0004C1A0020F8B50323CD1C9D4308350600DE
:100DB0000C2D2AD20C25A94229D8300000F092F837
:100DC0002A4F3A68002A0AD013685B1B04D441E01A
:100DD00023685B1B1FD522005468002CF8D17B6868
:100DE000002B3DD02900300000F06AF8431C2AD0C7
:100DF0000323C41C9C43A04205D0211A300000F0FC
:100E00005FF8431C1FD0256010E0002DD3DA0C23BF
:100E100000203360F8BD0B2B05D86368A2421DD0BB
:100E2000536003E014002360E4182560300000F0F4
:100E30005BF8200007220B30231D9043C21AE9D033
:100E40001B1AA350E6E70C233000336000F04CF887
:100E50000020DFE70B2BE5D8140053683B60E5E783
:100E60000021300000F02CF87860BBE74C1A00201D
:100E7000F8B507000C00150000291BD0002A15D07A
:100E800000F034F82600A84201D33000F8BD290054
:100E90003800FFF787FF061EF7D021002A00FFF772
:100EA00079FE21003800FFF727FFEEE7FFF724FF68
:100EB0000026EAE71100FFF775FF0600E5E7C046E8
:100EC000002370B5064C05000800236000F03AF8D6
:100ED000431C00D070BD2368002BFBD02B60F9E7CA
:100EE000A81E00207047C0467047C0460B1F1B68F5
:100EF000181F002B00DB70470B58C018FBE7C046DB
:100F000043001B0E7F3B10B5162B13DC002B09DBB7
:100F10000B4A1A41024204D08021C9031941081822
:100F2000904310BDC00FC0070133FAD1FE239B05CB
:100F30001843F6E7802BF4D1011C00F0DBF8F0E752
:100F4000FFFF7F00044A1368002B03D018181060BD
:100F500018007047014BF9E7541A0020B01E00201A
:100F6000002243088B4274D303098B425FD3030AE8
:100F70008B4244D3030B8B4228D3030C8B420DD3FB
:100F8000FF22090212BA030C8B4202D31212090289
:100F900065D0030B8B4219D300E0090AC30B8B42C7
:100FA00001D3CB03C01A5241830B8B4201D38B0375
:100FB000C01A5241430B8B4201D34B03C01A52411A
:100FC000030B8B4201D30B03C01A5241C30A8B425D
:100FD00001D3CB02C01A5241830A8B4201D38B0248
:100FE000C01A5241430A8B4201D34B02C01A5241EC
:100FF000030A8B4201D30B02C01A5241CDD2C3095E
:101000008B4201D3CB01C01A524183098B4201D3D9
:101010008B01C01A524143098B4201D34B01C01AC4
:10102000524103098B4201D30B01C01A5241C3083C
:101030008B4201D3CB00C01A524183088B4201D3AB
:101040008B00C01A524143088B4201D34B00C01A97
:101050005241411A00D20146524110467047FFE703
:1010600001B5002000F006F802BDC0460029F7D007
:1010700076E770477047C0468446101C62468C462F
:10108000191C634600E0C0461FB500F0D1FE0028E1
:1010900001D40021C8421FBD10B500F01BFE404224
:1010A000013010BD10B500F0C3FE002801DB0020A8
:1010B00010BD012010BDC04610B500F0B9FE0028DB
:1010C00001DD002010BD012010BDC04610B500F0AC
:1010D0003DFE002801DC002010BD012010BDC046EF
:1010E00010B500F033FE002801DA002010BD012009
:1010F00010BDC046F0B54646D6464F464D024202A8
:10110000C0B5520A6E0A4700B0463F0E4E00C40FEB
:10111000D00094463B008246360EC90FAD098C4282
:101120006DD0B81B814600284DDD002E00D188E02F
:10113000FF2F5AD08023DB041D434B4601221B2B7B
:101140000ADC2B004A464946D3402022521A9540D9
:101150002A00551EAA411A4353469A1A530100D435
:10116000B9E092019609300000F01AFF0538864078
:10117000874200DDD4E03300C71B20200137FB404D
:10118000C71BBE403200561EB24100271A43530708
:1011900004D00F231340042B00D00432530100D499
:1011A0009CE07B1CFE2F00D19AE09201520A9446EB
:1011B000DBB2D8056346E407184320431CBC9046C5
:1011C0009946A246F0BD002849D0F31B002F00D05D
:1011D000B6E05246002A60D0013B002B00D1FCE073
:1011E000FF2E00D0B4E00C004246002A78D08020C8
:1011F000C00310434202530A9C46FF23D9E7B91BA0
:10120000002971DD002E3FD0FF2FEED08023DB04BC
:101210001D4301221B2907DC2A002023CA40591A3A
:101220008D406B1E9D412A435244530153D50137D3
:10123000FF2F55D001237B49134052080A401A431F
:10124000A5E7002D2CD001235B429C46E1444B4690
:10125000002B00D1ADE0FF2F00D06EE7C5E7FE20E8
:101260007E1C304260D1002F00D093E05246002A0D
:1012700000D1B6E0002D9CD0521B500100D4C3E039
:1012800053460C00EA1A82E7002D09D001390029E3
:1012900000D18BE0FF2FBCD1A7E70C0042463700FE
:1012A000FF2FA2D05202530A9C46FBB281E7FE21D7
:1012B0000137394265D1002B7ED1002800D1AAE048
:1012C000002D00D175E72A0052440027530102D5B2
:1012D000554B01371A40530700D05AE7D208DFE7D1
:1012E0000022FF23944664E70029E0D0F31B002F7F
:1012F0003ED0FF2E00D177E780220100D2041143B7
:101300008A4601221B2B08DC524620215046DA4037
:10131000CB1A9840431E984102433700521984E784
:10132000414A3F1A324032E753465E1B73012DD4C7
:10133000002E00D017E7002200240023944638E74F
:10134000FF2E00D14FE780225046D2041043824640
:1013500001221B2B08DC524620245046DA40E31AB7
:101360009840431E984102430C003700AA1AF5E644
:10137000002893D0013B002B4FD0FF2EC1D1424615
:1013800033E7FF2FACD055446A08A4E753460C005E
:10139000EE1AE8E65346002B28D1002D00D022E7B4
:1013A0008023DB039C460024FF2302E72A005244EB
:1013B0003BE753465A1BD1E6002800D114E7002D25
:1013C00000D112E78023DB031A4200D10DE741462A
:1013D000194200D009E7424607E70C003700AA1A75
:1013E000BCE6002D13D00C00C446E2E6002D00D16F
:1013F000FBE68023DB031A4200D1F6E640461842A2
:1014000000D0F2E60C00EFE6002A00D063E70022ED
:1014100000249446CDE6C446CBE62A003700524469
:1014200003E7C046FFFFFF7DFFFFFFFBF0B54F4620
:101430004646D6464502C0B547000C1C6D0A3F0E15
:10144000C60F002F66D0FF2F6CD00023EA00802546
:1014500099469A46ED0415437F3F60026100430AB6
:101460009846090EE40F002948D0FF2910D08022A9
:10147000D800D2040243904600207F394A46330008
:101480007F1A02436C4992008A586340DBB2974648
:10149000002B6DD10220FF3F33E000239846260049
:1014A000454682465346022B00D17FE0032B00D1F4
:1014B00094E0012B17D038007F3000285FDD6B07E8
:1014C00004D00F232B40042B00D004352B0103D56F
:1014D00038005A4B80301D40FE2867DCAD016D0A94
:1014E000C0B202E01E0000200025C0052843F60718
:1014F00030431CBC90469946A246F0BD002B2BD130
:1015000001204A4633004E49024392008A58634004
:10151000DBB29746002D13D104239946033B0027E5
:101520009A469AE7002D05D108239946063BFF27E6
:101530009A4692E70C239946093BFF279A468CE787
:10154000280000F02DFD7627431F9D4000237F4299
:1015500099469A463F1A80E7180000F021FD42465E
:10156000431F76219A404942091A9046002085E798
:10157000FF21032082E71E00FF200025B5E701239D
:101580001B1A1B2BAFDC9E372900BD40D9406A1EB9
:1015900095410D436B0704D00F232B40042B00D043
:1015A00004356B0144D5012000259EE7FF2000256E
:1015B0009BE780250026FF20ED0396E70023984651
:1015C0008020C003054209D04346034206D1454668
:1015D00005436D022600FF206D0A86E78020C003C8
:1015E00005436D02FF206D0A7FE741466A0148010D
:1015F000824219D21B210025013F012614006D00F3
:101600005200002C01DB904201D8121A35430139F7
:101610000029F3D1501E824138007F301E0015434F
:10162000002800DD4BE7AAE71A210125121AE4E79A
:10163000AD0100206D0A58E7844F0008FFFFFFF757
:10164000C44F0008F8B557464E464546DE464402AC
:10165000E0B545000F1C640A2D0EC60F002D47D0C3
:10166000FF2D4DD0002380209A469B46E400C00405
:1016700004437F3D7802430A99467A00FB0F98465F
:10168000120E4B4644D0FF2A11D0D8008023DB0431
:101690000343994600207F3AAD18474653467740AA
:1016A000691C0F2B3FD8724A9B00D3589F46FF35C9
:1016B000002B00D079E0524602231A4392460220C2
:1016C000EBE747464C4683465B46022B28D0032B6C
:1016D00000D1C6E0012B4FD100200024C005FF0738
:1016E000204338433CBC90469946A246AB46F8BDE1
:1016F000002C71D104239A46033B00259B46B9E791
:10170000002C63D108239A46063BFF259B46B1E790
:10171000002B50D1524601331A4392460120BCE7B8
:10172000FF200024DAE74846260C2404220C040497
:10173000240C4B4620001B0C504374435A435E4319
:101740001219030C9B189C4203D980225202944622
:10175000664400041A04000C12189401601E8441AF
:101760001B0C920E9B1914439B011C431B0172D549
:101770000120630804401C4308007F3000283CDD42
:10178000630704D00F232340042B00D0043423012B
:1017900003D580310800374B1C40FE28C0DCA40173
:1017A000640AC0B29AE737008EE7524603231A4311
:1017B0009246032071E7484600F0F2FB4A46431F79
:1017C0009A402D1A91460020763D66E70C239A46F2
:1017D000093BFF259B464DE7200000F0E1FB762505
:1017E000431F9C4000236D429A469B462D1A41E7B9
:1017F00080240027FF20E40370E701231B1A1B2B22
:1018000000DD69E79E3120008C40D840631E9C417A
:101810000443630704D00F232340042B00D0043477
:1018200063011AD50120002458E78020C003044238
:1018300009D04B46034206D14C4604436402474656
:10184000FF20640A4AE78020C00304436402370093
:10185000FF20640A42E729008EE7A4010020640A01
:101860003CE78020C00304436402FF20640A35E79C
:1018700004500008FFFFFFF7F0B54646D6464F4636
:1018800043025B0ADA0094464A02C0B54400560A95
:10189000051CB046240E4E0092091F0020009246FF
:1018A000ED0F360EC90FFF2E00D17FE0012251400F
:1018B0008D4251D0A21B9146002A00DC7EE0002E12
:1018C00000D199E0FF2C00D18CE080235246DB044C
:1018D0001A4392464A4601231B2A08DC534620211C
:1018E000D340891A52468A40511E8A4113436246A8
:1018F000D31A5A0100D4F3E09B019E09300000F096
:101900004FFB05388640844200DDF7E03200041BBF
:1019100020200134E240041BA64033005E1EB34188
:10192000002413435A0704D00F221A40042A00D07F
:1019300004335A0100D4D6E0621CFE2C00D1DAE058
:101940009B015F0AD0B2C0053843ED0728431CBC99
:1019500090469946A246F0BDA21B9146002A63DD3F
:10196000002E00D199E0FF2C3CD080235246DB04AE
:101970001A4392464A4601231B2A08DC534620217B
:10198000D340891A52468A40511E8A411343634408
:101990005A0100D4A4E00134FF2C00D1ABE00122B5
:1019A00097491A405B080B401343BBE7002A32D02B
:1019B0008D4235D0FF2252429146A1444A46002A28
:1019C00051D0301B002C00D09CE06346002B00D18E
:1019D000DFE00138002800D1F7E0FF2E00D099E0C9
:1019E0000D004346002B00D185E08027FF031F43F5
:1019F0007F02FF207F0AA6E75246002A74D0012208
:101A000052429046C1444A46002A00D1C8E0FF2C09
:101A100000D05FE7E6E701225140A94200D049E744
:101A2000FF2252429146A1444A46002A43D0311B2C
:101A3000002C00D18CE0FF2E00D192E08023624682
:101A4000DB041A43944601231B2909DC202063464A
:101A50006246CB40411A8A401100481E81410B4327
:101A60003400534494E7FE22661C324264D1002CB9
:101A700000D082E06346002B00D1ABE05346002B40
:101A800000D160E7634652469B1A5A0100D4AAE08F
:101A9000634652460D00D31A44E75246002A23D02B
:101AA000012252429046C1444A46002A75D0FF2C7A
:101AB00000D05FE796E7FE260134264253D1002886
:101AC00072D16346002B00D193E05346002B00D126
:101AD00039E7634400245A0102D54A4A01341340CD
:101AE0005A0700D020E7DB08FF2C00D17AE75B0221
:101AF0005F0AE0B227E7FF20002724E7414B241AC2
:101B000033400FE7FF2E00D16AE780236246DB04F3
:101B10001A43944601231B2809DC202463466246AD
:101B2000C340201A82401000441EA0410343524685
:101B30000D003400D31ADCE6634652469E1A730148
:101B400017D4002E00D0D9E6002500200027FAE6A1
:101B50006346002B44D0013900294CD0FF2E00D021
:101B600071E743463EE7FF2CC5D052466244530816
:101B7000B6E763460D00D61AC0E66246002A16D1C3
:101B80005346002B00D02BE780270025FF20FF03C2
:101B9000D9E60D0043463400A6E753466344F7E612
:101BA000634652469B1AA4E66246002AD9D05246A2
:101BB000002A00D116E78022D203134200D111E798
:101BC0004046104200D00DE70AE752460D003400AF
:101BD000D31A8EE65346002B08D00D004746B2E6D6
:101BE0004346340080E7002B00D079E7002500272A
:101BF000A9E64746A7E6534634006344C8E6C04614
:101C0000FFFFFF7DFFFFFFFB41024200C30F490AB8
:101C10000020120E7E2A03D99D2A02D9094A98185B
:101C20007047802000040143952A07DC9620821A21
:101C3000D1404842002BF3D10800F1E7963A914099
:101C4000F7E7C046FFFFFF7F70B5002813D0C3172A
:101C5000C5185D40C40F280000F0A2F99E230100C2
:101C60001B1A962B0FDC082801DD08398D406D0208
:101C70006D0AD8B202E0002400200025C0052843E8
:101C8000E407204370BD992B0BDD05222E00121AAC
:101C9000D64002001B3295402800451EA841350061
:101CA0000543052901DD4A1F95402A00084E3240B0
:101CB000680709D00F202840042805D004325001BD
:101CC00002D59F2332405B1A9201550AD8B2D5E75C
:101CD000FFFFFFFBF0B54F464646D6469446914679
:101CE0001A03120B184DC0B54C000F0392465A0050
:101CF000060080463F0B0120640DC90F520DDB0F1B
:101D0000AC420AD0AA4203D0944201D157450DD02B
:101D10001CBC90469946A246F0BD3D003543F7D124
:101D2000A242F5D1524665462A43F1D10120C84569
:101D3000EED1994206D0002CEAD13E433000461E37
:101D4000B041E5E70020E3E7FF070000F0B54E46AD
:101D500045465746DE4604001800E0B516001B0352
:101D60001B0B324D0F034A0099464300A446B04670
:101D70003F0B520DC90F5B0DC00FAA4229D0AB42D9
:101D800018D0002A2AD13C43A34665426541002B66
:101D900002D14C46264327D0002D15D1814228D0B0
:101DA00002200139084001383CBC90469946A246C1
:101DB000AB46F0BD4D462E432FD1002AEED13C4319
:101DC00065426541002DE9D00028EDD10120404257
:101DD000EAE73D00254320D19342EBD0002BDDD133
:101DE0004C462643DAD1DBE75B460020002BDBD0F4
:101DF000D6E79A420ADCE7DB4F45D1D810D0002065
:101E00004F45D1D20029E1D00800CDE743425841E7
:101E10000223404218400138C6E702204042C3E78F
:101E2000C445BDD80020C445BED2EBE7FF07000083
:101E3000F0B54E4645465746DE4604001800E0B56C
:101E400016001B031B0B314D0F034A00994643003C
:101E5000A446B0463F0B520DC90F5B0DC00FAA42FE
:101E600011D0AB4214D0002A2FD13C43A346654287
:101E70006541002B14D14C46264311D15B4600200E
:101E8000002B17D010E03D00254312D193421CD106
:101E90004D462E430DD1002A04D13C436542654195
:101EA000002D0DD1814216D00220013908400138A1
:101EB00000E002203CBC90469946A246AB46F0BDED
:101EC0000028F7D101204042F4E7002BEAD14C462C
:101ED0002643E7D1E8E79A4206DD43425841022310
:101EE000404218400138E5E79A42E9DB4F45DBD82C
:101EF00006D000204F45DDD20029E3D00800D9E705
:101F0000C445D1D80020C445D4D2F5E7FF0700006E
:101F100070B543004602C40FFE201B0E591C750A03
:101F200008420CD0E022920094466D07360B6344C1
:101F30001B053343E40723432800190070BD002B21
:101F400014D1002D1BD0280000F02AF80A281CDC30
:101F50000B232A001B1ADA40030015339D400E4B59
:101F600012031B1A5B05160B5B0DE1E7002D09D070
:101F7000320B80263603094B6D071643D8E7002342
:101F80000026D5E70026054BD2E703002A000B3BCD
:101F90009A400025E3E7C04689030000FF070000E0
:101FA0001C2101231B04984201D3000C10391B0A89
:101FB000984201D3000A08391B09984201D300094D
:101FC000043902A2105C40187047C04604030202A4
:101FD000010101010000000000000000F0B5C6464C
:101FE00000B588B01422002103A8FEF7D7F82F4BC4
:101FF000596980200003014359615A6902400092E7
:10200000009A596980208002014359615A6902404F
:102010000192019A5A698021C9020A435A615B6997
:102020000B400293029B224E9023DB059846002230
:102030003100180001F089FCC327BF011D4D0022AB
:102040003900280001F081FC80239B0103930024C8
:102050000494059403A9184801F092FB0396012605
:1020600004960594069403A9404601F089FB134B9E
:102070000393134B0493059403A9280001F080FBFC
:10208000039704960594069403A9280001F078FBB1
:102090008023DB0103930494059403A9280001F035
:1020A0006FFB08B004BC9046F0BDC0460010024073
:1020B00080800000000400480008004806800000FE
:1020C0000000111000B583B0094A5169012319437A
:1020D0005161526913400193019B002200210A20A3
:1020E00001F022FD0A2001F04FFD03B000BDC04603
:1020F0000010024010B50D4C0D4B23600D4B63607A
:102100000023A3600122E26023616361A361E361B4
:102110002362200000F0E0FD0021200000F042FEDC
:102120000021200000F06AFE10BDC046741A002095
:10213000005800405D3E302010B50E480E4B036045
:1021400082235B00436000238360E022D200C260F0
:1021500003614361802292008261F93AFF3AC261D1
:102160000362436283620721C1620363426301F039
:102170001DFE10BD041B00200030014030B597B09B
:102180001022002112A8FEF709F80822002110A849
:10219000FEF704F81C22002109A8FDF7FFFF20220A
:1021A000002101A8FDF7FAFF1E4D1F4B2B600024F4
:1021B0006C60AC600A23EB602C616C61AC61280040
:1021C00002F09EF880235B01129312A9280002F00E
:1021D00091F9280002F0AEF81094119410A928008B
:1021E00002F034FA602309932E3B0A930B940C946B
:1021F0000D940E940F94002209A9280002F0F8F81B
:102200000194029403940494059480239B01069303
:10221000089401A9280002F04FFA280000F088FC79
:1022200017B030BDC41A0020002C014030B591B069
:102230001C22002109A8FDF7B1FF2022002101A8DE
:10224000FDF7ACFF194D1A4B2B600A236B6000247D
:10225000AC60FA239B00EB602C616C618023AB6166
:10226000280002F04DF8280002F064F8602309937A
:1022700004330A930B940C940D940E940F94002243
:1022800009A9280002F0B4F801940294039404947C
:10229000059480239B010693089401A9280002F06D
:1022A0000BFA280000F044FC11B030BDDC1D00200A
:1022B0000044014070B5124C124B2360002565604C
:1022C000A5600126267320232361656180239B017D
:1022D000A361C023E36125626562A562943BE55476
:1022E000263B23636563A663200002F02DFA0649AE
:1022F00002230B608E604D60200002F0C5FA70BDB5
:10230000601E002000400240681A002010B50748F7
:10231000074B036008234360063B8360036100238F
:102320008361C361036202F00FFB10BD681B0020D4
:10233000005C0040F0B5C64600B50700424B5A6845
:10234000904600221A6000240DE08021C901280077
:1023500001F0F4FA18231B1B98403B4B1A681043FA
:10236000186011E00134A74218DD8026B601374D10
:1023700001223100280001F0E8FA00223100280093
:1023800001F0E3FA172CE0DD2F4B1B681A02E9D5A8
:10239000FF22120613432C4A1360E3E72A4B9B6883
:1023A000DA179B185340FA229200934239DD264BEC
:1023B00001225A751A685A60254B1B6800225A631D
:1023C000214C6068FFF740FC2249FFF73BF9051CF0
:1023D0002068FFF739FC2049FFF734F9011C281C5D
:1023E000FEF788FEFFF710FC606043461B1AA360EF
:1023F0001A4FBE687D68FFF727FC291CFFF73CFADF
:1024000080463868291CFFF737FA011C4046FFF761
:102410000DF8011C301CFFF715F9E06004BC904674
:10242000F0BD142B08DD084B00225A75196859605D
:10243000074B1B685A63C3E7034B00225A75044BD2
:102440001B6832325A63BBE7640000200004004876
:10245000C41A0020A4707D3F00D7233C081A002036
:1024600070B50021204802F0FDF9012806D01F4B6D
:102470009B7A002B29D0012B2ED070BD1A4D002144
:10248000280002F0FBF9194CA37A5B00E318D8800E
:102490001749280002F0F8F90121280002F01DFA7E
:1024A0002B6803229A60280002F0A2F9A37A5A004E
:1024B000A418E1880F4A914203D80C4A0121D15453
:1024C000D5E70A4A0021D154D1E7094B02221A600C
:1024D000064B013A9A72D0E7054B04221A60034B6F
:1024E00000229A72C9E7C046601E00205C1A0020D4
:1024F000681A0020B70B000010B598B030220021F8
:102500000CA8FDF74BFE1022002107A8FDF746FEA0
:102510001C2200216846FDF741FE20230B931F3B40
:10252000139300240BA800F093FC07230793043BAC
:10253000089309940A94012107A800F075FF8023ED
:102540009B0200930694684601F010F818B010BD85
:1025500070B584B001F0E0F8FFF7CEFFFFF73EFD65
:10256000FFF7B0FDFFF7C6FDFFF7E6FDFFF706FE3C
:10257000FFF75CFEFFF79EFEFFF7C8FE80210022FA
:102580008901DE4801F0E1F902F0DAFBDC4C2000C1
:1025900001F050FE0021200002F02CF82368D94CF5
:1025A00022885A63002002F0B3FB01F0D1F8D64B29
:1025B000E054D64802F01CF9D54C200001F03AFE58
:1025C0000021200002F016F8236800225A63B4E0CC
:1025D000D04B01221A73002402E0022001F0BEF861
:1025E000CD4B5B78002B04D0C72CF6D80134E4B275
:1025F000F3E7C72C00D8A5E0C64B00221A730132BE
:102600005A739FE0012001F0A9F8C34B1B78002BFF
:10261000F8D1C14CE07A0130C0B20321FEF726FDAB
:10262000E17294E0BB4B01221A73A3E0002B03D0AC
:10263000B94AD27A022A43D0B64B5B7B002B05D035
:10264000B64BDA68B34B1A6100225A738021090233
:10265000AA4801F073F900285BD1B04C207DFFF748
:1026600069FE90208021C00501F075F901F070F835
:10267000AB4D2B68C01AAB4B186001F069F82860AD
:10268000A568AC1C042C32D8A44BDE68301CFFF7C4
:10269000BBFAFFF7D9FA011C301CFFF7EDF8A2498D
:1026A000FEF7D0FFFFF7B0FA002820D1994C2800A0
:1026B000FFF7CAFA011C6068FFF7DEF8606032E0DD
:1026C000964A92681D323A2A0DD80133914A137303
:1026D000904B1B7B142BAFD9904B5868FFF7B4FA83
:1026E0008C4B1860A8E78B4B01221A73F0E7042C7F
:1026F00019D82800FFF7A8FA051C864C011C606851
:10270000FFF7BAF86060291C2068FFF7B5F8206071
:1027100009E0012001F022F8804B5A7D8021490117
:10272000764801F012F901F013F8764B7F4A9A5C73
:102730008018754A9B5C984228D8774B5B78002BB1
:1027400000D045E7744B1B78002B00D05DE7714B40
:102750001B7B002B00D169E76F4AD27A022A00D195
:1027600064E76E4A92681D323A2A00D95AE701336B
:10277000684A1373674B1B7B142B00D85CE7674BCD
:102780005868FFF761FA634B586055E7634BDE68A2
:10279000301CFFF7BDFB04000D00654A654BFEF7DA
:1027A00095FC002800D18EE0614A634B200029008F
:1027B000FEF778FC002800D185E0574BDB7A002B30
:1027C00037D15E4A5E4B20002900FEF789FC0028C5
:1027D0002DD02025301CFFF717FA0400FFF734FA3C
:1027E000011C301CFFF748F84F49FEF72BFFFFF79D
:1027F0000BFAE217A3185340524CC21780185040EE
:1028000000902A0050492000FDF738FD4F4B0293FD
:10281000002301934E4B0093082322000021002047
:1028200002F07AF92D210A2002F050FA60E02D25FD
:10283000D0E7012B19D0022B5AD1384B5A68414CA2
:1028400044492000FDF71AFD404B029300230193F9
:102850003F4B0093082322000021002002F05CF986
:102860002D210A2002F032FA42E0344A344B200093
:102870002900FEF735FC002823D02024254B1969B8
:10288000301CFEF7D3FDFEF73BFBFFF7BDF9C21787
:10289000831853402B4D22002F492800FDF7EEFCF2
:1028A0002A4B029300230193294B009308232A000B
:1028B0000021002002F030F92D210A2002F006FA52
:1028C00016E02D24DAE71F4C24492000FDF7D6FC42
:1028D0001E4B0293002301931D4B009308232200FB
:1028E0000021002002F018F92D210A2002F0EEF953
:1028F00000F02EFF034A044BD0541EE700040048AA
:10290000DC1D00207C0000208A190000601E0020D1
:10291000C41A0020081A00205C1A0020640000205D
:10292000581A0020C01A002000007A448B190000B9
:102930009A99999999F958C099F95840FCA9F1D2F6
:102940004D6250BF7E00002044500008FFFF000091
:10295000241A0020605000085450000868500008F5
:1029600010B590208021C00500F0F5FF642000F034
:10297000F5FEF6E77047FEE77047704710B500F0C8
:10298000DBFE10BD10B5FFF76BFD024801F0C2FF82
:1029900010BDC046601E002010B5024801F06FF85F
:1029A00010BDC0461C1E002082B00A4B996901224E
:1029B0001143996199690A400092009ADA6980216D
:1029C00049050A43DA61DB690B400193019B02B0C0
:1029D0007047C0460010024010B588B004001422B1
:1029E000002103A8FDF7DAFB2268134B9A4201D0BD
:1029F00008B010BD114C62698021C9020A436261AE
:102A000063690B400193019BC0231B0103931223B5
:102A10000493113B059303220692079303A90848E8
:102A200000F0AEFEE2698021C9030A43E261E36976
:102A30000B400293029BDBE700580040001002406D
:102A40000004004870B588B004001422002103A8D7
:102A5000FDF7A4FB1E4B22689A4201D008B070BD5E
:102A60001C4B9A698026760132439A619A693240FA
:102A70000192019A5A698021C9020A435A615B692D
:102A80000B400293029B28230393263B04930025CB
:102A9000059501330693079503A90F4800F070FED2
:102AA0000E480F4B03601023436085607033C36092
:102AB000056145618561C66100F07EFF002803D194
:102AC000064B63655C62C9E7FFF74AFFF8E7C0465B
:102AD0000030014000100240000400481C1E00208D
:102AE0003000024082B003680E4A934204D00E4A7E
:102AF00093420CD002B070470C4A916980200001CB
:102B000001439161936903400093009BF2E7074AF8
:102B10009169802080020143916193690340019390
:102B2000019BE7E7002C01400044014000100240F7
:102B300010B588B004001422002103A8FDF72EFB75
:102B400023681D4A934204D01C4A93421BD008B00C
:102B500010BD1B4A516980208002014351615369B5
:102B600003400193019B80235B000393FE3B04938E
:102B700000220592033206920793902003A9C00514
:102B800000F0FEFDE3E70E4A51698020C0020143D8
:102B90005161536903400293029B80235B000393BE
:102BA000FE3B0493002205920692079303A9054871
:102BB00000F0E6FDCBE7C046002C01400044014098
:102BC000001002400004004870B588B004001422D0
:102BD000002103A8FDF7E2FA22681D4B9A4201D0BA
:102BE00008B070BD1B4B59698020400401435961F6
:102BF0005A6902400192019A5A69802189020A4366
:102C00005A615B690B400293029B012303931133CA
:102C10000493002405940694032607969025ED0559
:102C200003A9280000F0ACFD06230393043B0493A2
:102C300005940694079603A9280000F0A1FD002240
:102C40000021082000F070FF082000F09DFFC7E77A
:102C5000004002400010024082B00268074B9A42D6
:102C600001D002B07047064AD169802000040143B8
:102C7000D161D36903400193019BF2E7005C0040FE
:102C8000001002404022835A02490B439BB28352F8
:102C90000020704780BFFFFF4022835A02490B404B
:102CA000835200207047C0467F40000084B010B5BA
:102CB00003910492059340220123835200238352FF
:102CC000043283520C328352FFF7DCFF002010BC29
:102CD00008BC04B01847000010B5041E59D04123A9
:102CE000C35C002B43D041232422E25422681368A2
:102CF00001218B4313602268274B61680B401361ED
:102D00002268936825490B409360E368012B34D017
:102D1000226884231B02A1680B439360E368022BA3
:102D200032D0226851681E4B0B4353602268D3682F
:102D30001A490B40D360236962691343A2691202E6
:102D400021681343CB602268E369216A0B43136057
:102D50002268136801210B4313600023636441223E
:102D60001F31A15423630132A354002010BD40330E
:102D70000022C254FFF730FEB5E7226880231B0211
:102D8000A1680B439360C9E72368802212015A604F
:102D9000C7E70120EAE7C046FFFFFFF0FF7FFFFF24
:102DA00000800002F0B54123C35C202B20D12033EA
:102DB000C35C012B1ED0402401220255412524234F
:102DC00043550668336893433360066833680A4F97
:102DD0003B403360066833681943316001680B6813
:102DE00013430B6020234355002303550020F0BDFF
:102DF0000220FCE70220FAE7FFEFFFFFF0B54123D6
:102E0000C35C202B1ED12033C35C012B1CD040247B
:102E10000122025541252423435506683368934314
:102E2000336006683368094F3B400902194331603B
:102E300001680B6813430B6020234355002303559F
:102E40000020F0BD0220FCE70220FAE7FFF0FFFFC0
:102E500070B582B0041E00D17FE20368DB072BD57A
:102E6000B34B5A680C231340042B1DD0B04B5A6847
:102E70000C231340082B0ED06368012B41D0002B8C
:102E800056D1AB4B1A68AB490A401A601A68AA4976
:102E90000A401A603BE0A64B5B68C0225202134016
:102EA000802252029342E7D1A14B1B689B0303D5BA
:102EB0006368002B00D153E223689B0777D59C4BB6
:102EC0005B680C221A4262D0994B5A680C2313405B
:102ED000082B53D0E368002B00D18AE0944A136892
:102EE00001210B43136000F033FC0500904B1B687D
:102EF0009B0775D400F02CFC401B0228F6D9032058
:102F00002CE28B4A116880235B020B4313606368D9
:102F1000002B25D000F01CFC0500854B1B689B0393
:102F2000CAD400F015FC401B6428F6D9032015E232
:102F3000052B09D07E4B1A687E490A401A601A6830
:102F40007D490A401A60E2E7794B19688022D20273
:102F50000A431A601968802252020A431A60D6E7AF
:102F600000F0F6FB0500724B1B689B03A4D500F034
:102F7000EFFB401B6428F6D90320EFE16C4B5B6844
:102F8000C02252021340802212029342A2D1684B07
:102F90001B689B0703D5E368012B00D0E2E164497D
:102FA0000B68F82293432269D20013430B60236815
:102FB0001B0744D5E369002B2ED05D4A536A0121DB
:102FC0000B43536200F0C4FB0500594B5B6A9B073F
:102FD00035D400F0BDFB401B0228F6D90320BDE12B
:102FE00053490B68F82293432269D20013430B60C4
:102FF000DDE74F4A136801218B43136000F0A8FB03
:1030000005004B4B1B689B07D1D500F0A1FB401B73
:103010000228F6D90320A1E1454A536A01218B43D6
:10302000536200F095FB0500414B5B6A9B0706D598
:1030300000F08EFB401B0228F6D903208EE12368A6
:103040005B0700D480E03A4BDB69DB001DD4384AD3
:10305000D169802040050143D161D36903400193C8
:10306000019B0125354B1B68DB0510D5A368012B9F
:1030700021D0002B36D12E4B1A6A01218A431A62C5
:103080001A6A03318A431A621AE00025EAE72B4ADA
:10309000116880235B000B43136000F059FB0600AE
:1030A000264B1B68DB05E1D400F052FB801B642833
:1030B000F6D9032052E11E4A136A01210B43136221
:1030C000A368002B24D000F043FB0600184B1B6ABA
:1030D0009B0737D400F03CFB801B194B9842F5D975
:1030E00003203BE1052B09D0114B1A6A01218A43C9
:1030F0001A621A6A03318A431A62E1E70C4B1A6AB0
:1031000004210A431A621A6A03390A431A62D7E78A
:1031100000F01EFB0600064B1B6A9B0712D500F051
:1031200017FB801B064B9842F5D9032016E1C046D9
:1031300000100240FFFFFEFFFFFFFBFF007000409A
:1031400088130000012D39D02368DB0610D5636990
:10315000012B39D0053357D1894A536B04218B4356
:103160005363536BF4318B43A169C9000B43536321
:1031700023689B066ED5824B5A680C2313400C2B98
:1031800060D07F4B5A680C231340082B53D0236A1E
:10319000002B7ED07A4A516B80235B020B43536332
:1031A00000F0D6FA0500764B5B6BDB0352D400F0DF
:1031B000CFFA401B0228F6D90320CFE0704AD3692A
:1031C00070490B40D361BFE76D4B5A6B04210A4332
:1031D0005A635A6B03390A435A6300F0B9FA05007F
:1031E000674B5B6B9B0706D400F0B2FA401B0228CA
:1031F000F6D90320B2E062494B6BF8229343A269EF
:10320000D20013434B63B3E75D4B5A6B04210A436F
:103210005A635A6B03398A435A6300F099FA0500DE
:10322000574B5B6B9B07A3D500F092FA401B02281B
:10323000F6D9032092E0524B5B68C0225202134041
:103240009342A4D14E4B5B6BDB0303D5236A012B66
:1032500000D089E0636A002B00D187E0484A5168BA
:103260000C220A40082A60D0022B25D0444A136859
:1032700045490B40136000F06BFA0400404B1B689B
:103280009B0150D500F064FA001B0228F6D90320F8
:1032900064E03B4A536B3D490B40536300F058FADE
:1032A0000500374B5B6BDB03D4D500F051FA401BB4
:1032B0000228F6D9032051E0314A136832490B4005
:1032C000136000F045FA05002D4B1B689B0106D5E5
:1032D00000F03EFA401B0228F6D903203EE0284BBE
:1032E000DA6A0F218A43216B0A43DA625A68284955
:1032F0000A40E16AA06A01430A435A6019688022C1
:1033000052040A431A6000F023FA04001C4B1B68A5
:103310009B0106D400F01CFA001B0228F6D90320FA
:103320001CE000201AE0002018E0012B20D0144BF4
:103330005A68D96AC0235B021340A06A834219D13C
:103340000F230B40216B8B4216D1F0239B031A40B5
:10335000E36A9A4212D1002000E0012002B070BD61
:103360000120FBE70120F9E70120F7E70020F5E75E
:103370000120F3E70120F1E70120EFE70120EDE76D
:1033800000100240FFFFFFEFFFFFFFFEFFFFFEFF09
:10339000FF7FC2FF10B588B004AA1E4B13CB13C227
:1033A0001B6813606A461C4B13CB13C21B68136067
:1033B0001A4B5A680C231340082B04D00C2B26D12F
:1033C000174808B010BD910C0F23194004A8445CA5
:1033D0001249C96A0B406946C95CC0235B021A40A6
:1033E00080235B029A4208D0C0235B029A4209D034
:1033F0000C48FDF7B5FD6043E3E70A48FDF7B0FD73
:103400006043DEE70648FDF7ABFD6043D9E70548BA
:10341000D7E7C046745000088850000800100240EA
:10342000006CDC0200127A0070B504000D00002868
:1034300000D186E0474B1A68012313408B420AD221
:1034400044490B68012293432B430B600B681A40DD
:10345000AA4200D077E023689A070ED55B0705D50E
:103460003D4A5168E023DB000B4353603A4A5368FE
:10347000F0218B43A1680B4353602368DB0735D5EC
:103480006368012B09D0022B24D0032B28D0324AA9
:103490001268920705D4012052E02F4A1268920365
:1034A00053D52D494A680320824313434B6000F0F3
:1034B0004FF90600284B5B680C221A4063689B009A
:1034C0009A4213D000F044F9801B244B9842F1D962
:1034D000032035E0204A12689201E2D401202FE057
:1034E0001D4A526BD203DCD4012029E0194B1A6823
:1034F00001231340AB4209D916490B6801229343BB
:103500002B430B600B681A40AA4220D123685B074B
:1035100006D5114A536812490B40E1680B435360CA
:10352000FFF738FF0C4B5A6812090F2313400D4A5E
:10353000D35CD8400C4B1860002000F0C5F8002088
:1035400070BD0120FCE70120FAE70120F8E7012027
:10355000F6E7C04600200240001002408813000039
:10356000FFF8FFFF546B00082C1A002070B582B0E2
:1035700004000368DB0337D54C4BDB69DB0067D401
:103580004A4AD169802040050143D161D369034093
:103590000193019B0125464B1B68DB055AD5434B24
:1035A0001A6AC0239B00110019401A4213D06268A6
:1035B00013408B420FD03D4B186A3E4A02401E6AB0
:1035C0008021490231431962196A3B4E3140196228
:1035D0001A62C30752D4354A136A36490B406168F0
:1035E0000B431362012D58D02368DB0706D52F4A01
:1035F000136B03218B43A1680B43136323689B0761
:1036000006D52A4A136B2D490B40E1680B4313631F
:1036100023689B0606D5254A136B10218B4321692D
:103620000B43136323689B0306D5204A136B802149
:103630008B43A1690B43136323685B0532D51B4A97
:10364000136B40218B4361690B43136300202AE015
:103650000025A0E7164A116880235B000B43136026
:1036600000F076F80600124B1B68DB0597D400F0DB
:103670006FF8801B6428F6D9032014E000F068F886
:1036800006000A4B1B6A9B07A5D400F061F8801B5B
:103690000B4B9842F5D9032005E0D36909490B404B
:1036A000D361A1E7002002B070BDC0460010024007
:1036B00000700040FFFCFFFFFFFFFEFFFFFFFCFF6D
:1036C00088130000FFFFFFEF10B504000F4B1978BF
:1036D000FA208000FDF744FC01000D4B1868FDF74F
:1036E0003FFC00F05DFA00280DD1032C01D9012028
:1036F0000AE0013000222100404200F015FA054B9B
:103700001C60002000E0012010BDC0461C1A0020F3
:103710002C1A0020201A002010B5064A1368102128
:103720000B4313600020FFF7CFFFFFF73DF90020A8
:1037300010BDC04600200240034A1168034B1B78AD
:103740005B1813607047C046A41E00201C1A00209E
:10375000014B18687047C046A41E002070B50400D5
:10376000FFF7F6FF0500631C02D0044B1B78E4183A
:10377000FFF7EEFF401BA042FAD370BD1C1A0020D9
:10378000F0B5D6464F464646C0B582B0002338E075
:10379000042600E00026A64034003C43023292009A
:1037A0005F4E94515F4A14684A46D24326004D4604
:1037B000AE434D68ED0302D54D462C432600594CCF
:1037C00026606468260016404D68AD0302D54D465C
:1037D0002C432600534C6660A468260016404D68B2
:1037E000ED0202D54D462C4326004E4CA660E468FF
:1037F00022404D68AD0201D54A462243494CE26061
:1038000001330C682200DA4000D182E001229A40A4
:1038100025001540A9461442F2D04C68022C01D074
:10382000122C0ED1DC080834A400275807261E40AD
:10383000B6000F25B540AF430D69B5402E003E439D
:1038400026500468A4465E000324A2462700B74021
:10385000B846FF4365464446A543AC464C685546CA
:1038600025402C00B44065462C4304604C68651E1E
:10387000012D03D9112C01D0122C13D184683C40A6
:10388000A446CC68B44065462C43846044689443A5
:1038900022004C682409A446012465462C409C4023
:1038A00014434460C26817408A68B2403A43C26019
:1038B0004A68D200A4D51C4CA66901221643A66111
:1038C000A46922400192019A9A08941CA400144E03
:1038D000A75903261E40B4000F26A640B7439026E2
:1038E000F605B04200D155E7104EB0420BD0104E55
:1038F000B0420AD00F4EB04209D00F4EB04200D1B4
:1039000046E7052647E7012645E7022643E7032663
:1039100041E702B01CBC90469946A246F0BDC046A5
:103920000000014000040140001002400004004873
:1039300000080048000C00480010004803690B42D2
:1039400001D0012070470020FCE7002A01D08161EE
:1039500070478162FCE74369194202D00904816122
:1039600070478161FCE770B5C56B0124066CB440FB
:103970006C60046863604368102B04D0036899602E
:103980000368DA6070BD03689A600368D960F9E77C
:1039900010B504000368064A9446634418001421D5
:1039A000FDF7DEFA80002064024BE36310BDC046E1
:1039B000F8FFFDBF0000024070B5041E20D0212595
:1039C0000223435501680B680E4A1A404368806819
:1039D0000343E06803432069034360690343A0692C
:1039E0000343E069034313430B602000FFF7D0FF5C
:1039F0000023A363012262551F32A354002070BD2F
:103A00000120FCE70FC0FFFF70B504002020205C00
:103A1000012832D02020012525540130205C0128C6
:103A200004D020230022E254022070BD2030013552
:103A300025540020A063256828680126B04328602B
:103A40002000FFF790FFE36A002B0BD02268136879
:103A50000E210B4313602268136801210B4313608E
:103A60000020E2E7226813680A210B4313602268F2
:103A7000136806398B431360EDE70220D5E770B574
:103A8000C36B1A6804682568016C04238B401A42D2
:103A900012D06B0710D523689B0603D42368042239
:103AA00093432360C26B0423016C8B405360C36A51
:103AB000002B00D0984770BD02238B401A4218D0CB
:103AC000AB0716D523689B0606D423680A229343C6
:103AD00023602123093AC254C26B0223016C8B403C
:103AE000536020230022C254836A002BE3D09847FE
:103AF000E1E708238B401A42DDD02B07DBD5236892
:103B00000E2293432360C26B01231900046CA14071
:103B100051608363212283541F330022C254036BFC
:103B2000002BC8D09847C6E770B5002811DB830882
:103B3000134EC0339B009D5903242040C000FF2238
:103B400014008440A54389010A4082402A439A51C7
:103B500070BD0F230340083B9B0806339B00094AB6
:103B6000944663445C6803221040C000FC32150098
:103B70008540AC4389010A40824022435A60E7E70E
:103B800000E100E000ED00E0002805DB1F23184005
:103B90001E3B8340014A13607047C04600E100E0CD
:103BA000013880235B0498420FD2094A50600948CB
:103BB000036A1B021B0AC02109060B430362002390
:103BC000936007331360002070470120FCE7C04674
:103BD00010E000E000ED00E0F0B5C64600B50700DB
:103BE0000D0090461E003B689C682C40641B63429D
:103BF0005C4144453BD0731CF5D0FFF7A9FD069B03
:103C0000C01AB04201D2002EEDD13A685368E021CB
:103C10008B43536082235B007A689A420CD08023E6
:103C20009B01BA6A9A4216D05D230122FA54013BE5
:103C30000022FA5403201BE0BB6880221202934248
:103C400003D08022D2009342E9D13A681368402120
:103C50008B431360E3E73A68136807490B4013602E
:103C60003A68116880239B010B431360DCE7002056
:103C700004BC9046F0BDC046FFDFFFFFF8B5CE465E
:103C8000474680B581460E001700984602E043463D
:103C900001330DD14B461D68AC683440BC424AD05C
:103CA000C021C9008E42F2D1002FF0D12B7BEEE76C
:103CB000FFF74EFD089BC01A404502D24346002B39
:103CC000E8D14B461A685368E0218B435360822346
:103CD0005B004A4652689A420ED080239B014A46B6
:103CE000926A9A4219D05D2301224946CA54013B87
:103CF0000022CA5403201FE04B469B688022120218
:103D0000934203D08022D2009342E6D14B461A68F8
:103D1000136840218B431360DFE74B461A68136832
:103D200007490B4013604B461A68116880239B01BA
:103D30000B431360D7E700200CBC90469946F8BDB2
:103D4000FFDFFFFF70B582B004000D001600C02138
:103D500000922B0000224901FFF790FF002818D1A4
:103D600000962B00002280212000FFF735FF00285D
:103D700016D1C02100962B000022C9002000FFF7B9
:103D80007DFF00280AD0236E2022134323660320E0
:103D900004E0236E202213432366032002B070BD8B
:103DA000236E2022134323660320F7E710B5041E79
:103DB0005ED0002383625D33C35C002B4CD05D2357
:103DC0000222E2542268136840218B431360E368A7
:103DD000E022D200934245D90022F02109018B4212
:103DE00005D0E021C9008B4201D00021A162216BE6
:103DF000002905D1E021C9008B4236D90223236373
:103E00006368A1680B4321690B4361690B438021FF
:103E10008900A06901400B43E1690B43216A0B4310
:103E20002168A06A03430B60618B04230B40616A25
:103E30000B43616B0B43E1680B43216813434B60F9
:103E40002268D3690B490B40D361002323665D339D
:103E50000122E254002010BD5C330022C254FEF760
:103E6000F1FDACE780225201B7E701232363C7E7E6
:103E70000120F0E7FFF7FFFF70B504005C23C35C8F
:103E8000012B00D184E05C230120E0540133E35C8A
:103E9000DDB2012B76D1002975D0002A73D05C33B6
:103EA0000230E05400232366A163A287E2872364E3
:103EB0002365E3644422A3520232A35280231B02EF
:103EC000A2689A4239D0636D324ADA62636D324A2F
:103ED0009A62636D314A1A63636D00225A632268E5
:103EE00053682F490B405360E023DB00E2689A429D
:103EF00005D8636D5A698023DB009A4224D022687A
:103F00000C32E38F9BB2A16B606DFFF77DFD002843
:103F100030D123681A68520603D41A6840210A4334
:103F20001A602268536820210B435360226853684B
:103F30001E390B435360050025E022681168802379
:103F4000DB010B431360BEE7E38FDB0707D4226876
:103F500053680B405360E38F5B08E387CFE7226829
:103F600051688023DB010B435360E38F5B0801330F
:103F7000E387C4E7236E1022134323665D230F3AC1
:103F8000E25400E002255C230022E254280070BDC8
:103F90000225FBE7A93F0008D73F0008B53F00080E
:103FA000FFBFFFFF7047704710B5406AFFF7FBFF88
:103FB00010BD704710B5406A0268536803218B43F7
:103FC0005360036E1022134303665D230F3AC254FD
:103FD000FFF7EFFF10BD30B583B00500446AFFF76F
:103FE000B7FB02002B681B689B0625D421684B6831
:103FF000202083434B6021684B681E3883434B600D
:1040000064212000FFF79EFE002803D0236E2022AB
:1040100013432366A368002B06D101932368DA6853
:1040200001929B680193019B0023E3875D3301228A
:10403000E254236E002B04D12000FFF7B3FF03B03E
:1040400030BD2000FFF7B5FFF9E7000030B5036A87
:10405000012293430362036A426884697325AC4377
:104060000D682C430225AB438D682B43144DA842A9
:1040700008D0144DA84205D0134DA84202D0134DCC
:10408000A84205D10825AB43CD682B430425AB439B
:104090000B4DA84208D00B4DA84205D00A4DA842AE
:1040A00002D00A4DA84205D1094D2A404D692A4344
:1040B0008D692A43426084614A684263036230BD6D
:1040C000002C0140004001400044014000480140F4
:1040D000FFFCFFFF70B5036A194A13400362036ACD
:1040E0004268C4697325AC430E682643154C2340CF
:1040F0008C6824022343144CA04219D0124CA042D5
:1041000008D0124CA04205D0114CA04202D0114C54
:10411000A04207D1104C14404A69120122438C6915
:1041200025012A434260C6614A68C263036270BDCA
:104130000A4C1C40CB681B022343094C2340DDE79B
:10414000FFFEFFFFFFFDFFFF002C0140004001408C
:104150000044014000480140FFCFFFFFFFF7FFFF91
:10416000FFFBFFFF30B5036A134A13400362026A84
:104170004368C469114D2C400D682D022C43104D2D
:1041800015408A6812032A430E4DA84208D00E4DEE
:10419000A84205D00D4DA84202D00D4DA84204D131
:1041A0000C4D2B404D69AD012B434360C4614B68FE
:1041B0000364026230BDC046FFEFFFFFFF8CFFFFCC
:1041C000FFDFFFFF002C01400040014000440140A0
:1041D00000480140FFBFFFFF30B5036A046A0125B4
:1041E000AC4304628469EF35AC43120122430A24D4
:1041F000A3430B438261036230BD000030B5036A04
:104200001024A34303628469036A054D2C40120302
:104210002243A024A343090119438261016230BDF6
:10422000FF0FFFFF8368702293430B4307210B436B
:10423000836070473D230222C25402689168363B76
:104240000B40062B03D0136801210B4313603D2361
:104250000122C25400207047704700000368214AC1
:10426000904206D08022D205904202D01E4A90424F
:1042700003D1702293434A6813431A4A904212D0E2
:104280008022D20590420ED0174A90420BD0174A96
:10429000904208D0164A904205D0164A904202D069
:1042A000154A904203D1154A1340CA68134380222D
:1042B00093434A69134303608B68C3620B6883624C
:1042C000084B984208D00A4B984205D0094B9842B7
:1042D00002D0094B984201D10B690363012343616A
:1042E0007047C046002C0140000400400020004000
:1042F000004001400044014000480140FFFCFFFF36
:1043000070B5041E14D03D23C35C002B0AD03D259C
:1043100002236355210001C9FFF7A0FF0123635564
:10432000002070BD3C330022C254FEF7DBFBEEE7F9
:104330000120F6E770B5041E14D03D23C35C002BAA
:104340000AD03D2502236355210001C9FFF786FFEE
:1043500001236355002070BD3C330022C254FFF797
:104360007BFFEEE70120F6E770B5036A1022934366
:104370000362036A42688469174D2C400D682D0260
:1043800025432024A3438C6824012343134CA042DB
:1043900019D0124CA04208D0114CA04205D0114CAB
:1043A000A04202D0104CA04207D1104C14404A69E0
:1043B000920022438C69A6003243426085614A68BC
:1043C0008263036270BD8024A3431C00CB681B0181
:1043D00023434024A343DCE7FF8CFFFF002C014074
:1043E000004001400044014000480140FFF3FFFF4E
:1043F00070B504000D003C23C35C012B69D03C2345
:104400000121C15401330131C154082A4DD019D8BA
:10441000002A2FD0042A40D129000068FFF7A4FF0A
:104420002268916980231B010B4393612268936981
:1044300029490B40936121688B692A691202134351
:104440008B612AE00C2A28D129000068FFF78AFE38
:104450002268D16980231B010B43D3612268D36991
:104460001D490B40D3612168CB692A6912021343AD
:10447000CB6112E029000068FFF7E8FD226893692C
:1044800008210B4393612268936904398B4393613C
:104490002268936929690B4393613D230122E25409
:1044A000013B0022E254002070BD29000068FFF7A4
:1044B00011FE2268D36908210B43D3612268D369B6
:1044C00004398B43D3612268D36929690B43D361D3
:1044D000E3E70220E8E7C046FFFBFFFF30B5846852
:1044E000034D2C401B0213430B432343836030BD19
:1044F000FF00FFFF10B504003C23C35C012B66D016
:104500003C230122C25401330132C2540268936831
:104510003048034093600B68602B44D024D8402B74
:104520004BD00BD9502B0ED1CA6849682068FFF7D1
:1045300053FE50212068FFF775FE04E0202B0ED0BB
:1045400009D9302B0BD03D230122E254013B00223C
:10455000E254002010BD002B01D0102BF3D1190024
:104560002068FFF75FFEEEE7702B10D080229201EB
:104570009342E8D1CB684A6889682068FFF7AEFFAC
:10458000226891688023DB010B439360DBE7CB68F3
:104590004A6889682068FFF7A1FF2268936877213D
:1045A0000B439360CFE7CA6849682068FFF726FE8F
:1045B00060212068FFF736FEC5E7CA6849682068B1
:1045C000FFF70AFE40212068FFF72CFEBBE7022020
:1045D000C0E7C0468800FFFF10B51F231940012423
:1045E0008C40036AA3430362036A8A401343036255
:1045F00010BD000010B5040001220068FFF7ECFFB9
:1046000023680E4A934208D00D4A934205D00D4AC2
:10461000934202D00C4A934204D1596C8022120278
:104620000A435A642268916807230B40062B03D083
:10463000136801210B431360002010BD002C0140C2
:1046400000400140004401400048014030B53C2397
:10465000C35C012B28D03C230122C2540133013218
:10466000C25403685A689C687025AA430D682A439F
:104670005A6003680D4A934209D08022D2059342C2
:1046800005D00B4A934202D00A4A934204D18022B9
:1046900094434A6814439C603D230122C254013B69
:1046A0000022C254002030BD0220FCE7002C014053
:1046B000000400400040014010B53C23C35C012BC6
:1046C00021D03C2201238354104BCC6823408C68BA
:1046D00023430F4C23404C6823430E4C23400C686B
:1046E00023430D4C23400C6923430C4C23404C695D
:1046F00023430B4C2340C9690B4301684B640023DF
:104700008354002010BD0220FCE7C046FFFCFFFFE1
:10471000FFFBFFFFFFF7FFFFFFEFFFFFFFDFFFFFE5
:10472000FFBFFFFF10B504000023002000E00133AD
:10473000072B08D899000F228A401442F7D0012293
:104740009A401043F3E710BD70B5041E4ED03C23D1
:10475000C35C002B3DD03C230222E2542368013A83
:104760001A60206802686368A1680B4321694904E4
:104770000B4361690B43A1690B43E1690B43616A18
:104780000B43A16A0B4313430360237B012B26D009
:10479000236B626B1343A26B13432268DB431361E9
:1047A0002268236B616B0B4393622368A26B1A62CE
:1047B0002568206BFFF7B6FF286321684B6803224A
:1047C00093434B6023689A603C23023AE2540020F2
:1047D00070BD3D330022C254FEF7F6F9BBE72268F4
:1047E000116880235B020B431360D1E70120EFE7E0
:1047F0003D23C35C012B33D001213D23C154013B38
:104800000222C254026853680B4353602C23C35CDA
:10481000012B19D00268536802218B43536003684F
:1048200003229A60036A002B14D1026813681021D6
:104830008B4313600268136802210B4313603D230E
:104840000022C254002070470268536801310B43B4
:104850005360E4E70268136810210B431360E9E733
:104860000220F0E703681A6B0F230B40103301207E
:104870009840904343425841C0B2704703680C319E
:10488000890059184868704770B504003D23C35C1F
:10489000012B20D03D2501234355026813680220D7
:1048A000834313600B684A6813438A681343226882
:1048B000DB43136122680B684868034393622368F3
:1048C0008A681A6226680868FFF72CFF30630023A5
:1048D0006355002070BD0220FCE73D23C35C012B23
:1048E00014D03D230122C254012909D00268136863
:1048F00010210B4313603D230022C2540020704757
:10490000026813680F318B431360F4E70220F6E767
:104910007047704710B50368DA68D20701D50122E5
:104920009A600368DA68920707D502229A603C23EE
:104930000132C254FFF7EDFF10BD3C230122C254E7
:10494000FFF7E6FFF8E7000030B587B0041E61D03E
:10495000314BC35C002B1ED02F4B0322E254206846
:10496000FEF79AF90023606883421BD25A01A2180D
:10497000110029310120087001390B70D386100015
:104980002B30002101709163D1639A1C52011151A7
:104990000133DBB2E7E78A239B000022C254FEF713
:1049A0005BF9D9E7002215E05301E3181D002A3511
:1049B000FF3500212970013D2A70033529700D351E
:1049C00029603D33FF33196013000A335B0119512D
:1049D0000132D2B29042E7D8230010336A4623CB8B
:1049E00023C203CB03C26168A268E3682068FEF7B4
:1049F0005DF924230022E254074B0132E254E369BB
:104A0000012B02D0002007B030BD200000F006F8D6
:104A10000020F8E70120F6E72902000001689A2348
:104A20009B000122C250083B0022C25454328B5AD0
:104A3000012003439BB28B528B5A022003439BB24B
:104A40008B5200207047000088231B1A1720411A40
:104A500008014018C0001B1804335B000148C3184C
:104A60005A8070477C000020F0B5DE4657464E461F
:104A70004546E0B583B081468A4698460CAB1B8814
:104A800001930DAB1B889B469F283ED84F293CD8ED
:104A9000203A4346DE8872439988CE0807230B40AC
:104AA000591E8B41F618564343461B689C46664484
:104AB000002724E05346D9194B461819019AFFF7ED
:104AC000C3FF072D14D00134A4B243469B88A342F0
:104AD00010D932780725254080232B411342E9D095
:104AE0005346D9194B4618195A46FFF7ADFFE8E768
:104AF0000136E8E75B0700D001360137BFB2434615
:104B0000DB88BB4201D90024DFE703B03CBC904600
:104B10009946A246AB46F0BDF0B5DE46574680B595
:104B200085B00290039116000CAB20CB1B889A46EF
:104B30000EAB1B889B469F2823D84F2921D80F00F6
:104B4000040012E0EB88FB184F2B01DD039F029C51
:104B50005B460193534600932B0039002000FFF77A
:104B600083FF0136AB881C19A4B23278002A08D022
:104B7000AB88E3189F2BE5DDEB88DF19BFB2029C01
:104B8000E0E705B00CBC92469B46F0BD70B5002234
:104B900080210D48FEF7D9FE1420FEF7DFFD8025A9
:104BA0002D029024E405002229002000FEF7CDFE0E
:104BB0001420FEF7D3FD012229002000FEF7C5FED8
:104BC0001420FEF7CBFD70BD0004004830B583B063
:104BD0006B46DC1DD871094D002280212800FEF7AC
:104BE000B4FE012240212800FEF7AFFE0122210081
:104BF0000348FFF741F903B030BDC0460004004848
:104C0000041B002030B583B06B469C1DD880094D35
:104C1000002280212800FEF798FE01224021280072
:104C2000FEF793FE022221000348FFF725F903B0A7
:104C300030BDC04600040048041B002030B583B0DE
:104C40006B46DC1DD871094D002280212800FEF73B
:104C50007CFE002240212800FEF777FE0122210081
:104C60000348FFF709F903B030BDC046000400480F
:104C7000041B0020F8B5013087B2013296B21A3118
:104C80008DB21A339CB22A20FFF7D8FF380AFFF7FB
:104C90009DFFF8B2FFF79AFF300AFFF797FFF0B2D7
:104CA000FFF794FF2B20FFF7C9FF280AFFF78EFFBD
:104CB000E8B2FFF78BFF200AFFF788FFE0B2FFF7AB
:104CC00085FF2C20FFF7BAFFF8BD000010B50B00E0
:104CD00017339BB20200873292B2FFF7CBFF084C2A
:104CE000002280212000FEF730FE0122402120001A
:104CF000FEF72BFE034A04490448FFF7BDF810BD38
:104D0000000400487F19000086000020041B0020DA
:104D100070B505004F239F2200210020FFF7AAFF56
:104D2000002608E02800FFF76DFF0134A4B24F2CE5
:104D3000F8D90136B6B29F2E01D80024F7E770BD2E
:104D400010B5FFF723FF1120FFF778FF7820FEF75B
:104D500005FD2120FFF772FF2120FFF76FFFB12033
:104D6000FFF76CFF0520FFF731FF3A20FFF72EFF1A
:104D70003A20FFF72BFFB220FFF760FF0520FFF777
:104D800025FF3A20FFF722FF3A20FFF71FFFB3204D
:104D9000FFF754FF0520FFF719FF3A20FFF716FF32
:104DA0003A20FFF713FF0520FFF710FF3A20FFF727
:104DB0000DFF3A20FFF70AFFB420FFF73FFF032063
:104DC000FFF704FFC020FFF739FF6220FFF7FEFE68
:104DD0000220FFF7FBFE0420FFF7F8FEC120FFF7DB
:104DE0002DFFC020FFF7F2FEC220FFF727FF0D20A6
:104DF000FFF7ECFE0020FFF7E9FEC320FFF71EFFE0
:104E00008D20FFF7E3FE6A20FFF7E0FEC420FFF7E6
:104E100015FF8D20FFF7DAFEEE20FFF7D7FEC52045
:104E2000FFF70CFF0E20FFF7D1FEE020FFF706FF93
:104E30001020FFF7CBFE0E20FFF7C8FE0220FFF781
:104E4000C5FE0320FFF7C2FE0720FFF7BFFE0E20BE
:104E5000FFF7BCFE0720FFF7B9FE0220FFF7B6FE02
:104E60000A20FFF7B3FE1220FFF7B0FE2720FFF75E
:104E7000ADFE3720FFF7AAFE0020FFF7A7FE0D20AA
:104E8000FFF7A4FE0E20FFF7A1FE1020FFF79EFE05
:104E9000E120FFF7D3FE1020FFF798FE0E20FFF76A
:104EA00095FE0320FFF792FE0320FFF78FFE0F20F1
:104EB000FFF78CFE0620FFF789FE0220FFF786FE33
:104EC0000820FFF783FE0A20FFF780FE1320FFF77C
:104ED0007DFE2620FFF77AFE3620FFF777FE0020C2
:104EE000FFF774FE0D20FFF771FE0E20FFF76EFE38
:104EF0001020FFF76BFE3A20FFF7A0FE0520FFF71A
:104F000065FE3620FFF79AFEA820FFF75FFE2920F6
:104F1000FFF794FE10BD70470D4885460D480E49B9
:104F20000E4A002302E0D458C4500433C4188C4203
:104F3000F9D30B4A0B4C002301E013600432A24268
:104F4000FBD3FFF7E8FFFBF707F9FDF701FBFEE7EF
:104F50000040002000000020301A0020A86B00084C
:104F6000301A0020AC1E0020FEE70000F8B5C04655
:104F7000F8BC08BC9E467047F8B5C046F8BC08BCF3
:044F80009E46704792
:104F8400EA15000876150008E41400089E140008C9
:104F9400E4140008B2150008E41400089E14000884
:104FA4007615000876150008B21500089E1400084E
:104FB400A4140008A4140008A4140008C0150008D0
:104FC4007615000876150008E41400089A14000801
:104FD400E4140008B2150008E41400089A14000848
:104FE4007615000876150008B21500089A14000812
:104FF400A4140008A4140008A4140008BC15000894
:1050040026170008C4160008C4160008C2160008B3
:10501400C8160008C8160008F0170008C2160008D1
:10502400C8160008F0170008C8160008C2160008C1
:10503400A6170008A6170008A61700082A180008D3
:105044002563253032642E25303364670000000068
:1050540025632530346470637300000025303764A1
:105064000000000020206D61782120200000000055
:1050740002030405060708090A0B0C0D0E0F101095
:10508400000000000102030405060708090A0B0CCE
:105094000D0E0F10000000000000000000000000D2
:1050A40000000000000000000000000000000000FC
:1050B40000000000000000000000000000000000EC
:1050C40000000000000000000000000000000000DC
:1050D40000000000000000000000000000000000CC
:1050E4000000000000000380000380000380000330
:1050F400800003800003800003800003800003809D
:105104000001000001000000000000000003800016
:105114000380000000000000000000000000000008
:10512400000000000000000000000000000000007B
:10513400000E70000E70000E7000042000042000A9
:105144000420000420000000000000000000000013
:10515400000000000000000000000000000000004B
:10516400000000000000000000000000000000003B
:1051740000000000000006600006600006600006F3
:1051840060000660003FF8003FF8000660000CC0B5
:10519400003FF8003FF8000CC0000CC0000CC00039
:1051A4000CC0000CC0000000000000000000000063
:1051B40000000000000000000000000180000180E9
:1051C4000007B0000FF0001870001870001C0000F9
:1051D4000F800007E00000F0001830001C30001CB5
:1051E40070001FE0001BC0000180000180000180EE
:1051F400000180000000000000000000000000002A
:105204000000000000000780000FC0001CE0001830
:1052140060001860001CE0000FF80007E0001FF0B9
:105224000007380006180006180007380003F000CD
:1052340001E0000000000000000000000000000089
:10524400000000000000000000000000000000005A
:105254000000000003F00007F0000C60000C0000E8
:105264000C00000600000700000F9C001DFC001845
:10527400F0001870000FFC0007DC000000000000C4
:10528400000000000000000000000000000000001A
:105294000000000000000000000380000380000301
:1052A4008000010000010000010000010000000076
:1052B40000000000000000000000000000000000EA
:1052C40000000000000000000000000000000000DA
:1052D40000000000000000000000000000000018B2
:1052E4000000380000700000F00000E00000E00062
:1052F40001C00001C00001C00001C00001C00001E4
:10530400C00000E00000E000007000007000003801
:105314000000180000000000000000000000000071
:105324000000000000001800001C00000E00000E29
:1053340000000700000700000380000380000380D2
:1053440000038000038000038000070000070000C2
:105354000F00000E00001C000018000000000000F8
:1053640000000000000000000000000000000180B8
:10537400000180000180001DB8001FF80007E00054
:1053840003C00003C00006600006600000000000C7
:105394000000000000000000000000000000000009
:1053A40000000000000000000000000000000000F9
:1053B4000000000000000000000000000180000167
:1053C40080000180000180000180003FFC003FFC60
:1053D4000001800001800001800001800001800044
:1053E40000000000000000000000000000000000B9
:1053F40000000000000000000000000000000000A9
:105404000000000000000000000000000000000098
:105414000000000000000000000000000000000088
:10542400000000E00000C00001C000018000018015
:105434000003000003000000000000000000000062
:105444000000000000000000000000000000000058
:1054540000000000000000000000001FF8001FF81A
:105464000000000000000000000000000000000038
:105474000000000000000000000000000000000028
:105484000000000000000000000000000000000018
:105494000000000000000000000000000000000008
:1054A40000000000000000000000000000000000F8
:1054B400000003C00003C00003C00000000000009F
:1054C40000000000000000000000000000000000D8
:1054D40000180000180000380000300000700000C0
:1054E400600000600000C00000C000018000018076
:1054F400000300000300000600000600000E000088
:105504000C00001C0000180000180000000000003F
:10551400000000000000000000000000000003C0C4
:105524000007E0000C30000C3000181800181800B8
:105534001818001818001818001818001818000C6B
:1055440030000C300007E00003C000000000000041
:105554000000000000000000000000000000000047
:105564000000000000000080000780001F80001D74
:105574008000018000018000018000018000018022
:10558400000180000180000180000180001FF800FC
:105594001FF80000000000000000000000000000F0
:1055A400000000000000000000000000000007C030
:1055B400001FF000383000301800301800001800C8
:1055C40000300000600001C0000380000600000CF1
:1055D40000001800003FF8003FF800000000000041
:1055E40000000000000000000000000000000000B7
:1055F40000000000000003C0000FE0000C70000079
:10560400300000300000600003C00003E0000070C0
:10561400000018000018000018001838001FF000DF
:105624000FC00000000000000000000000000000A7
:10563400000000000000000000000000000000E086
:105644000001E00001E00003600006600006600065
:105654000C60000C60001860003060003FF8003FF0
:10566400F80000600003F80003F8000000000000E8
:105674000000000000000000000000000000000026
:105684000000000000001FF0001FF00018000018C8
:1056940000001800001BC0001FF0001C30000018A0
:1056A400000018000018000018003030003FF0001F
:1056B4000FC0000000000000000000000000000017
:1056C400000000000000000000000000000000F8DE
:1056D4000003F8000700000E00000C000018000092
:1056E4001BC0001FF0001C30001818001818001808
:1056F40018000C38000FF00003E000000000000068
:105704000000000000000000000000000000000095
:105714000000000000001FF8001FF800181800180F
:1057240038000030000030000070000060000060AD
:105734000000E00000C00000C00001C000018000C3
:1057440001800000000000000000000000000000D4
:10575400000000000000000000000000000007E05E
:10576400000FF0001C38001818001818000C300046
:1057740007E00007E0000C300018180018180018A3
:1057840018001C38000FF00007E0000000000000C3
:105794000000000000000000000000000000000005
:1057A40000000000000007C0000FF0001C300018CB
:1057B40018001818001818000C38000FF80003D847
:1057C4000000180000300000700000E0001FC0005E
:1057D4001F000000000000000000000000000000A6
:1057E40000000000000000000000000000000000B5
:1057F4000000000000000000000003C00003C0001F
:1058040003C00000000000000000000000000000D1
:10581400000003C00003C00003C00000000000003B
:105824000000000000000000000000000000000074
:105834000000000000000000000000000000000064
:10584400000000F00000F00000F000000000000084
:105854000000000000000000E00001C00001800022
:1058640001800003000002000000000000000000AE
:105874000000000000000000000000000000000024
:1058840000000000001C00003C0000F00003C00009
:105894000F00003C0000F000003C00000F0000037B
:1058A400C00000F000003C00001C000000000000EC
:1058B40000000000000000000000000000000000E4
:1058C40000000000000000000000000000000000D4
:1058D40000000000007FFC007FFC000000000000CE
:1058E400007FFC007FFC00000000000000000000BE
:1058F40000000000000000000000000000000000A4
:105904000000000000000000000000000000000093
:10591400000000007000007800001E0000078000F6
:1059240001E000007800001E0000780001E000079C
:1059340080001E00007800007000000000000000DD
:105944000000000000000000000000000000000053
:1059540000000000000000000007C0000FE0001875
:10596400700018300018300000700000E00003C020
:105974000003800003000000000000000007000096
:10598400070000000000000000000000000000000C
:10599400000000000000000000000000000003E020
:1059A4000007F0000E38000C180018780018F800F2
:1059B40019D80019980019980019980018F80018B7
:1059C40078001800000C00000E180007F80003E02F
:1059D40000000000000000000000000000000000C3
:1059E4000000000000000000001F80001FC0000134
:1059F400C0000360000360000630000630000C3075
:105A0400000FF8001FF800180C00300C00FC7F0099
:105A1400FC7F000000000000000000000000000007
:105A24000000000000000000000000000000000072
:105A3400007FE0007FF000183800181800181800E4
:105A44001838001FF0001FF800181C00180C00186C
:105A54000C00180C007FF8007FF00000000000002C
:105A64000000000000000000000000000000000032
:105A740000000000000000000003EC000FFC001C0C
:105A84001C00180C00300C00300000300000300006
:105A940000300000300000180C001C1C000FF8003F
:105AA40003F00000000000000000000000000000FF
:105AB40000000000000000000000000000000000E2
:105AC400007FC0007FF000183800181800180C0080
