:020000040800F2
:1000000000400020054C0008D1260008D326000837
:1000100000000000000000000000000000000000E0
:10002000000000000000000000000000D5260008CD
:100030000000000000000000D7260008D9260008B4
:10004000554C0008554C0008554C0008554C00080C
:10005000554C0008554C0008554C0008554C0008FC
:10006000E1260008554C0008F5260008554C00080C
:10007000554C0008554C0008554C0008554C0008DC
:10008000554C0008554C0008554C0008554C0008CC
:10009000554C0008554C0008554C0008554C0008BC
:1000A000554C0008554C0008554C0008554C0008AC
:1000B000554C0008554C0008554C0008554C00089C
:1000C0000448054B10B5834203D0044B002B00D0ED
:1000D000984710BD2C1A00202C1A002000000000A8
:1000E00006480749091A8910CB0F591810B549104D
:1000F00003D0044B002B00D0984710BD2C1A0020D1
:100100002C1A00200000000010B5074C2378002BAB
:1001100009D1FFF7D5FF054B002B02D0044800E0C2
:1001200000BF0123237010BD2C1A00200000000026
:10013000584C0008054B10B5002B03D00449054866
:1001400000E000BFFFF7CCFF10BDC046000000007C
:10015000301A0020584C000870B50D4E0D4DAD1BE7
:10016000AD1006D00024A300F35801349847A542EF
:10017000F9D104F071FD084E084DAD1BAD1006D04D
:100180000024A300F35801349847A542F9D170BD6B
:10019000606800086068000860680008646800081B
:1001A000F0B5830746D0541E002A42D0CEB20200DA
:1001B000032502E01A00013C3BD3531C16702B426E
:1001C000F8D1032C2DD9FF220A40150215432A0429
:1001D00015430F2C16D92700103F3F093E01B446A6
:1001E0001E001A0010366644156055609560D56093
:1001F0001032B242F8D10F2201373F01DB1914400F
:10020000032C0ED9261FB608B700BC461A001F1DC6
:10021000674420C2BA42FCD103220136B6009B19C2
:100220001440002C05D0C9B21C19197001339C422E
:10023000FBD1F0BD14000300C3E7C0460CB400B509
:100240009DB00291069109491EAB0791049108499E
:1002500004CB059102A9019300F020F90023029A32
:1002600013701DB008BC02B01847C046FFFFFF7FE7
:100270000802FFFF0EB400B50B499CB00791049132
:100280000A491DAB05910A4904CB02900690086803
:1002900002A9019300F002F90023029A13701CB026
:1002A00008BC03B01847C046FFFFFF7F0802FFFFEE
:1002B00000000020F0B546464F46D646C0B58E68D1
:1002C00081460C0090461D0008689E4227D8902267
:1002D0008B89D200134234D00969421A924662696E
:1002E000681C5700BF18FA0FD7197F1050443A0006
:1002F000B84201D9070002005B0524D51100484629
:1003000000F012FD061E31D05246216900F024FC97
:10031000A3891B4A134080221343A38118E01E00C7
:100320002A00414600F05CFCA36800209E1B236865
:10033000A6609C46654425601CBC90469946A24632
:10034000F0BD3500ECE7484600F054FD061E09D02C
:100350003000534650446761FF1A266120602E002A
:10036000A760DDE72169484600F088FC0C234A4677
:10037000136040220120A38940421343A381DBE79D
:100380007FFBFFFFF0B557464E46DE464546E0B5DB
:10039000936883B001900E009246002B6CD01368D6
:1003A00008688D681F0044E09022B389D200134290
:1003B0002ED03169421A9346706942001218D00F4C
:1003C0008218601C521058449046904201D98046D1
:1003D00002008020C000034237D01100019800F0D5
:1003E000A3FC051E53D05A46316900F0B5FBB38912
:1003F000294A134080221343B381434628005A46BA
:100400003561A0462500584473619B1A3060B36083
:100410004246494600F0E4FBB3685D1B3368B560B3
:1004200043443360180053469B681C1B53469C6032
:1004300022D03B687C6899460837A846002CF8D043
:10044000AC42B1D22500A046E2E7019800F0D2FC10
:10045000051ED2D1019C3169200000F00FFC0C2355
:1004600023604022B38901201343B3815246002305
:1004700040429360536003E00023524600205360E3
:1004800003B03CBC90469946A246AB46F0BD0C2357
:10049000019A1360E5E7C0467FFBFFFFF0B5DE463B
:1004A000454657464E46E0B59FB003901D008B89E8
:1004B0008B4614001B0603D50B69002B00D106E107
:1004C000002306AE7361203373761033B3768A4B04
:1004D00005959846012399462378002B00D189E0A1
:1004E0002500252B03D117E0252B00D1C5E00135D0
:1004F0002B78002BF8D12F1B7CD03B0022005946D3
:100500000398FFF7D7FE431C74D073699C462B7881
:1005100067447761002B6DD0012200235242726044
:1005200044326C1C3360F360B360B354B36507E0CE
:100530004346C01A4B4683402C0032681343336055
:1005400021780522404600F0C7FA651C2F000028DC
:10055000EED13368DA0602D543222021B1541A07BE
:1005600002D543222B21B15421782A294FD00A00E9
:10057000303A2700092A0FD8F06801E02C00013535
:1005800083001B1829785B0098180A00303A2F0066
:10059000092AF3D9A51CF0602E2943D0574C032219
:1005A000200000F099FA002853D04023001B83401C
:1005B0003268297813435248062233606C1C317626
:1005C00000F08AFA00284ED04E4B002B59D005ABD4
:1005D00000935A464C4B3100039800E000BF82461E
:1005E0005346013306D07369534473612378002B5B
:1005F00000D075E75B469B895B0600D573E07069A8
:100600001FB03CBC90469946A246AB46F0BD059A49
:10061000111D12680591002A3ADBF2606178A51C71
:100620002E29BBD179782A2938D1059BB9781A1D92
:100630001B68FD1C059273600237002BAEDA0123A4
:100640002E4C5B4203222000736000F045FA002824
:10065000ABD12C003D00297806222948317600F0E4
:100660003BFA0028B0D105AB00935A46264B310027
:10067000039800F0DFF88246B2E72F1B00D14BE76A
:100680003BE70722059B0733934308330593AAE70B
:100690005242F260022213433360BFE70A00002394
:1006A000303A73600020092A01D90DE03D00830033
:1006B0001B1869785B0098180A00303A6F1C092AE9
:1006C000F4D90235706069E72F00013566E74021F3
:1006D00000F02AFB5B4618601861002806D0402312
:1006E0005A465361ECE60120404289E70C23039A05
:1006F0000138136084E7C046246800082C680008AD
:100700003068000800000000B5020008F0B54F4650
:100710004646D646C0B51F00089B914698468A6853
:100720000B6906000C00934200DA13004A4613607E
:100730004322A25C002A02D04A4601331360236898
:100740009A0660D54B461B6806209A1C4B461A60D9
:100750002368190018421FD1E16800258A1A19215F
:100760008A461900A244002A07DC15E04B46E268DD
:100770001B680135D31AAB420DDD01235246390007
:100780003000C047431CF1D1012040421CBC9046C0
:100790009946A246F0BD21684323E35C5A1E93416B
:1007A0008A060AD53020E1184331087045215A1CC9
:1007B000615CA218433202331170220039004332C7
:1007C0003000C047431CDFD0E36821689C464B469D
:1007D0001D680623A26820690B40042B19D08242B1
:1007E00021DD00239946121A91441A34002502E0B3
:1007F00001354D4517D00123220039003000C04794
:10080000431CF5D1C0E706221A420ED14A461268AF
:10081000A2E76346591BCB43DB170B409946824244
:10082000E1DC0029E1DC0020B0E74323E35C5A1E51
:100830009341C2E7F0B545469846432357464E4696
:10084000DE469A46E0B50B7E85B0170006000C0028
:100850000E9A8A446E2B52D00FD8632B00D1E3E05E
:1008600000D9CAE0002B58D0582B00D0F9E0452120
:100870006354974923688B4613E0732B00D1E1E062
:1008800000D985E06F2B00D1F2E0702B00D0E8E0BA
:10089000202309680B4323604521782060548D494B
:1008A0008B4611680D1D08681560190603D459069A
:1008B00001D50004000CDA0702D52022134323607F
:1008C000002800D075E0202322689A43226013009C
:1008D0004322A0546268A260002A00DA84E0042166
:1008E0008B43236010239946002A00D07EE05546B2
:1008F0004B46082B52D053465B1B236110E06369C3
:1009000009689C4613681D1D15601B686246080631
:1009100002D4490600D5C1E01A6000235546236180
:10092000434603AA009321003B003000FFF7EEFE90
:10093000431C20D023692A0039003000C047431CE3
:1009400019D022680398E36892071DD51A1A002A65
:100950001ADD192399460025A14405E0E3680398B0
:1009600001351A1AAA420FDD01234A463900300028
:10097000C047431CF2D10120404205B03CBC904628
:100980009946A246AB46F0BD9842F6DA1800F4E765
:10099000752B6DD0782B64D10B687DE72368DB075E
:1009A000A9D5636822699342A5DC3023013D2B70F1
:1009B000A1E71023994643230022E2546268A26013
:1009C000002A2EDB2168042399432160002800D1EE
:1009D0008AE75546494600F0E9FA5B465B5C013D13
:1009E0002B700028F6D183E7102399465B4625003B
:1009F0001A7842234235E2547AE7642B01D0692BFE
:100A00002FD113682168181D10600D0601D44D0602
:100A100046D41868002846DB2D4B9B460A2399468E
:100A2000CCE70028D5D1E1E713682500191D116036
:100A30001A684223E254413B42352361432300229A
:100A4000E2546DE71368191D11601D68626800218A
:100A5000280000F041F8002837D0401B606020617A
:100A6000ECE742222500A354012342352361E5E748
:100A700010682168051DAC460D0601D4490609D44D
:100A80006146116000686F2B1AD0114B9B460A23F8
:100A9000994690E7614600881160F4E71A803CE7C8
:100AA0000020185EB6E743232D22E254084B62680B
:100AB0009B460A234042A2609946002A83DA88E7CF
:100AC000034B9B460823994675E760682061B5E7AC
:100AD000386800084C68000870B5CCB2830734D081
:100AE000531E002A1BD00278A24219D0032504E02D
:100AF000013B14D30278A24212D001302842F7D130
:100B0000032B0ED8002B0AD00278A24208D0C318BB
:100B100002E00278A24203D001308342F9D10020E2
:100B200070BDFF220D062D0C114029430D04084E07
:100B30000D43026807496A40511891433142E3D19D
:100B4000043B0430032BF4D8DCE71300D8E7C0469D
:100B500080808080FFFEFEFEF0B50F2A38D90D00A0
:100B600005430C000300AD0736D110271500BC4625
:100B7000103D2D092E013618B444276866681F60A1
:100B80005E60A768E6689F60DE60103310346345DE
:100B9000F3D10F2401352D01491914404519032CB7
:100BA0001CD90023CE58EE500433E61A032EF9D890
:100BB0000323043CA4080134A4002D1909191A4088
:100BC00005D00023CC5CEC5401339342FAD1F0BD44
:100BD0000500002AF5D1FAE70500F2E72200F8E760
:100BE000F0B588420AD98B18984207D2531E002AC2
:100BF00003D0CA5CC254013BFBD2F0BD0F2A09D816
:100C00000500002AF9D00023CC5CEC540133934258
:100C1000FAD1F2E70D0005430C000300AD0729D11E
:100C20001500103D2D092F013F18103726681E6052
:100C300066685E60A6689E60E6681034DE60103309
:100C4000BB42F3D10F2401352D0149191440451938
:100C5000032C11D90023CE58EE500433E61A032E8C
:100C6000F9D80323043CA4080134A4002D19091960
:100C70001A40C6E70500C6E72200C2E770B50500C6
:100C8000002915D00C1F2368002B27DB280000F05B
:100C9000EBF8244B1A68002A05D0A2420CD921682F
:100CA000601882421CD0626028001C6000F0DEF8F0
:100CB00070BDA34203D81A005368002BF9D1116804
:100CC0005018A04219D012D821686018834221D050
:100CD00063605460280000F0C9F8E9E7E418D5E73C
:100CE000106852688446614421606260DCE70C232E
:100CF00028002B6000F0BAF8DAE7206809185018CD
:100D000011608342E6D118685B68844661441160D3
:100D10005360DFE718685B68844661442160636064
:100D20005460D7E7481A0020F8B50323CD1C9D4333
:100D3000083506000C2D2AD20C25A94229D83000EE
:100D400000F092F82A4F3A68002A0AD013685B1B19
:100D500004D440E023685B1B1FD522005468002C9C
:100D6000F8D17B68002B3DD02900300000F06AF8F4
:100D7000431C29D00323C41C9C43A04205D0211A44
:100D8000300000F05FF8431C1ED025600AE0002D03
:100D9000D3DA0C2300203360F8BD0B2B0FD923606E
:100DA000E4182560300000F061F8200007220B30C5
:100DB000231D9043C31AEFD05A42E250ECE7A242FF
:100DC0000DD063685360EDE70C233000336000F012
:100DD0004DF80020E0E714000B2BE0D854683C608D
:100DE0001400DFE70021300000F02CF87860BBE74A
:100DF000481A0020F8B507000C001500002917D08C
:100E0000002A1AD000F034F82600A84201D330009E
:100E1000F8BD29003800FFF787FF061EF7D0210034
:100E20002A00FFF799FE21003800FFF727FFEEE7C1
:100E30001100FFF779FF0600E9E7FFF71FFF002623
:100E4000E5E7C046002370B5064C050008002360A6
:100E500000F018F8431C00D070BD2368002BFBD0B5
:100E60002B60F9E7A41E00207047C0467047C046BB
:100E70000B1F1B68181F002B00DB70470B58C01896
:100E8000FBE7C046044A1368002B00D1034B181837
:100E9000106018007047C046501A0020A81E00209D
:100EA000002243088B4274D303098B425FD3030AA9
:100EB0008B4244D3030B8B4228D3030C8B420DD3BC
:100EC000FF22090212BA030C8B4202D3121209024A
:100ED00065D0030B8B4219D300E0090AC30B8B4288
:100EE00001D3CB03C01A5241830B8B4201D38B0336
:100EF000C01A5241430B8B4201D34B03C01A5241DB
:100F0000030B8B4201D30B03C01A5241C30A8B421D
:100F100001D3CB02C01A5241830A8B4201D38B0208
:100F2000C01A5241430A8B4201D34B02C01A5241AC
:100F3000030A8B4201D30B02C01A5241CDD2C3091E
:100F40008B4201D3CB01C01A524183098B4201D39A
:100F50008B01C01A524143098B4201D34B01C01A85
:100F6000524103098B4201D30B01C01A5241C308FD
:100F70008B4201D3CB00C01A524183088B4201D36C
:100F80008B00C01A524143088B4201D34B00C01A58
:100F90005241411A00D20146524110467047FFE7C4
:100FA00001B5002000F006F802BDC0460029F7D0C8
:100FB00076E770477047C0468446101C62468C46F0
:100FC000191C634600E0C0461FB500F0DFFE002894
:100FD00001D40021C8421FBD10B500F037FE4042C9
:100FE000013010BD10B500F0D1FE002801DB00205B
:100FF00010BD012010BDC04610B500F0C7FE00288E
:1010000001DD002010BD012010BDC04610B500F06C
:1010100059FE002801DC002010BD012010BDC04693
:1010200010B500F04FFE002801DA002010BD0120AD
:1010300010BDC046F8B54746CE4643025B0A4400A1
:10104000C20F9C464800DD004B02240E5B0A000ED6
:1010500080B5984626009146C90FDB00271A8A42C0
:1010600029D0002F15DD00284AD1002B00D095E0B3
:10107000ED08FF2C00D188E06B025B0AE6B25B0250
:10108000F605580A3043D20710430CBC90469946E7
:10109000F8BD002F00D087E0601CC0B2012800DC42
:1010A000B6E0EE1A720100D5C5E0002E3DD1002257
:1010B00000260023E3E7002F00DC96E000285DD047
:1010C000FF2C60D08022D20413431B2F00DDECE004
:1010D0002022D21B18009340F8405A1E934103432C
:1010E000ED186B017BD50134FF2C00D1B7E0012254
:1010F00007262A406B089A4D1D4015432E4029E0D3
:10110000FF2CB5D08022D20413431B2F00DDB2E0A8
:101110002022D21B19009340F9405A1E93410B43E1
:10112000ED1A6B015BD5AD01AE09300000F0E8FEB1
:1011300005388640844265DC041B330020200134DE
:10114000E340041BA640751EAE41334307261D0035
:1011500000241E4001224B461A40002E04D00F23CB
:101160002B40042B00D004356B0100D480E7013400
:10117000E6B2FF2C2FD1FF26002380E7002B52D1AF
:10118000FF2C00D074E70A00ED08002DF3D0802377
:10119000DB032B435B025B0AFF2670E7013F002F56
:1011A000BED0FF2CB1D163E7002C47D0FF2869D017
:1011B0008024E4047A4225431B2A00DDC5E02C008C
:1011C0002026D440B21A95406A1E954125435D1BE6
:1011D00004008946A5E7AB015B0A50E70024012221
:1011E0004B461A406B07BAD142E7002F3BD101347E
:1011F000E0B201284ADDFF2CBDD00726ED186D08AE
:101200002E40A7E70723574D241A35401E40A1E77B
:10121000002C1BD1002D6ED1002B00D19AE00A00CA
:101220001D003C0024E7013F002F00D158E7FF2CB0
:1012300000D04AE7A7E75E1B894676E7002D1CD160
:101240000A00FF281FD004001D0011E7002D5DD10A
:10125000002B17D180230022DB03FF260FE70A00B3
:10126000FF2600230BE7002C21D1002D66D1FF289B
:10127000E9D11D0087E7012352E77A1CA7D0FA4382
:10128000FF2899D10A001D00FF24F1E6002E21D18C
:10129000002D4FD0002B4CD0ED186B019ED5314B5B
:1012A00007362E4001241D4054E7012318E7FF288C
:1012B000DFD08024E4047F4225431B2F4DDC202611
:1012C000F61B2C00B540FC406A1E95412543ED18E5
:1012D000040006E7002DCCD0002B00D153E780217D
:1012E0006046C903084203D04046084200D11D00B1
:1012F0000121114047E7002B00D1B9E6EA1A50015D
:1013000025D507265D1B2E40894623E7FF24002BA9
:1013100000D1ADE680226046D203104204D04046A0
:10132000104201D11D00894601224B46FF241A407C
:101330009EE62B00DD080A0000249DE67A1CC6D03C
:10134000FF43FF28B9D11D001DE701253FE7151E0A
:1013500000D044E70022002391E60125B7E7C0460C
:10136000FFFFFF7DFFFFFFFBF8B557464E464546A2
:10137000DE464402E0B546008846640A360EC70FD2
:10138000002E63D0FF2E24D08023E400DB041C4316
:10139000002399469B467F3E434642465D02D20F5C
:1013A0005B006D0A1B0E9046924665D0FF2B55D010
:1013B00080220021ED00D2047F3B1543F61A4346FC
:1013C0004A467B400F2A00D98DE06D489200825832
:1013D0009746002C54D108239946063BFF269B468E
:1013E000DAE70025534602291BD0032900D1BFE0CC
:1013F000012928D030007F30002820DD6A0704D082
:101400000F222A40042A00D004352A0103D53000D7
:101410005C4A80301540FE2803DCAC01640AC2B28D
:1014200001E0FF2200246402D205600ADB071043BA
:1014300018433CBC90469946A246AB46F8BD0122F3
:10144000101A1B287CDD00220024ECE7002C1DD1A3
:1014500004239946033B00269B469DE7FF3E002D53
:1014600020D1022143464A467B400A430F2AD8D85E
:101470004548920082589746002D19D10121F1E785
:101480000C239946093BFF269B4685E7200000F088
:1014900037FD7626431F9C4000237642361A994634
:1014A0009B4679E74A4603231A439146032186E780
:1014B000280000F025FD431F36189D407636002198
:1014C0007DE780240023E403FF22ACE7002580238E
:1014D000DB031C4228D01D4226D12B435C02640A48
:1014E0004346FF229FE762016C01A24224D21B21E6
:1014F0000025013E012710006D005200002801DB8D
:10150000944201D8121B3D4301390029F3D1140044
:10151000621E944125436DE7BA465946250053465D
:10152000022900D061E77CE78023DB031C436402CF
:10153000640A3B00FF2276E7121B1A210125D9E736
:101540009E362A00B5402C00C240651EAC411443B3
:10155000620704D00F222240042A00D00434620122
:1015600003D4A401640A00225DE7012200245AE7A3
:101570008024E4032C436402640AFF2253E7C0463C
:10158000904C0008FFFFFFF7D04C0008F0B54E4626
:1015900057464546DE46E0B543025B0A450083B048
:1015A0000F1C99462D0EC60F002D57D0FF2D24D0AD
:1015B0008020DB00C0041843002381469A469B46E6
:1015C0007F3D7C027A00FB0F640A120E984623D0FE
:1015D000FF2A4BD0E30080240020E4047F3A1C4320
:1015E000AD186B1C47460193534677403A000F2BCA
:1015F00048D87D499B00CB589F46002B00D085E002
:1016000008339A46063B9B467C027A00FB0FFF2577
:10161000640A120E9846DBD1002C00D090E05246AE
:1016200001231A4392460120DBE74C465846170037
:10163000022824D0032800D1CFE000220023012873
:101640004DD15802D205400AFF071043384303B07A
:101650003CBC90469946A246AB46F0BD002B5BD100
:1016600004239A46033B00259B46AAE7FF35002C3E
:1016700060D1524602231A4392460220B1E7FF226C
:101680000023DEE74B461B0C9C464B462604360CDB
:10169000180461463300220C6446000C43434E4359
:1016A0005043544380191A0C1218964203D98021D2
:1016B00049028C4664441B041B0C1004C0188301AF
:1016C0005E1EB341800E1843130C1B199B0103438C
:1016D0001C00230179D5012362081C401443019AA0
:1016E0007F32002A4DDD630704D00F232340042BF3
:1016F00000D00434230103D53C4B019A1C408032B6
:10170000FE2ABCDCA3015B0AD2B29AE70C239A46FC
:10171000093BFF259B4654E7180000F0F1FB4A46C1
:10172000431F76259A4000236D4291462D1A9A4612
:101730009B4646E7524603231A439246032050E74E
:10174000200000F0DDFB431F2D1A9C40763D002059
:1017500047E780230027DB03FF2272E7424666E764
:101760004C463200584662E780234A46DB031A4261
:1017700022D01C4220D123435B025B0A4746FF2252
:101780005FE701239A1A1B2A21DC23000199D34029
:101790009E318C401A0023005C1EA34113435A075C
:1017A00004D00F221A40042A00D004335A0111D465
:1017B0009B015B0A002244E780234A46DB03134374
:1017C0005B025B0A3700FF223BE7019587E70022B7
:1017D000002336E70122002333E78023DB03234382
:1017E0005B025B0AFF222CE7104D0008FFFFFFF7AA
:1017F000F8B54746CE464400C20F80B547024802BE
:10180000400A8446664648007F0A240EF6002500FA
:101810009046FB00000EC90FB146FF2800D185E0BD
:1018200001267140261A914257D0002E43DD002830
:1018300000D07FE04946002900D1AAE0013E002EF9
:1018400000D0F7E05B1A5A0100D48BE09B019C09A1
:10185000200000F055FB05388440854200DDD3E0D0
:10186000451B230020200135EB40451BAC40621E88
:1018700094412343072400251C40012241460A408D
:10188000002C04D00F211940042900D00433590141
:1018900000D480E00135ECB2FF2D00D0A3E0FF249E
:1018A00000235B02E405580AD207204310430CBC16
:1018B00090469946F8BD002E74D1601CC0B2012834
:1018C00000DCA7E04A469C1A620100D5B6E0002C75
:1018D000BED1002200240023E3E7002E00DC85E0D7
:1018E000002846D0FF2C49D080224846D20410431D
:1018F000814601221B2E09DC20204C46801B84409F
:101900004A462000F240441EA04102439B185A015F
:1019100028D50135FF2D00D1A8E0012207249449E4
:101920001A405B080B4013431C40A6E7002E00D072
:1019300078E775E7FF2C54D080224946D204114342
:10194000894601221B2E09DC20214846891B88403C
:101950004A460100F240481E81410A439B1A5A013F
:1019600000D573E7012241460A40590700D089E7B4
:1019700011E04846002858D1FF2C0CD1DB08002B81
:1019800000D18CE78020C00303435B025B0AFF2485
:1019900087E7FF2C25D0DB08FF2DF0D05B025B0A28
:1019A000ECB27EE7002C4DD0FF2818D08024E40450
:1019B000724223431B2A00DDC4E01C002025D440D2
:1019C000AA1A93405A1E934123434A460500D31A4C
:1019D000884638E7721CF8D0F243FF28EAD10A00A3
:1019E0004B46FF25D7E79B015B0A5AE7002E41D102
:1019F000651CE9B2012945DDFF2D00D14FE7072421
:101A00004B445B081C4038E707225A4B2D1A2340F1
:101A1000144032E7002C1DD1002B7AD14B46002B0D
:101A200000D191E00A000025B5E7013E002E19D152
:101A30004B446CE7FF2C84D1FF25ACE74A4688462F
:101A4000D41A05E7002BC5D10A00FF28C8D005002D
:101A50004B46A0E7002B49D14B46002B77D00A001C
:101A6000FF2598E7FF2C00D043E787E70A00FF2413
:101A7000002316E7002C15D1002B57D1FF28E6D103
:101A80004B467BE7002C20D1002B57D0494600293C
:101A900053D04B445A0168D50724364A1C400125CF
:101AA0001340EAE6FF28EBD08022D20476421343AB
:101AB0001B2E53DC2025AD1B1A00AB40F2405C1EF0
:101AC000A34113434B44050021E7002BD8D04946DE
:101AD000002900D152E78021C9030F4200D14DE710
:101AE0006046084200D049E74B4647E74846FF2595
:101AF000002800D14FE78022D203174204D060466D
:101B0000104201D14B46884601224146FF250A403A
:101B100041E7484600281FD01A1A500120D54A46EE
:101B20000724D31A1C4088460025A6E6741CC9D099
:101B3000F643FF28BCD14B4620E799464B4600258B
:101B4000DB082BE7012340E700220023A9E68023DE
:101B50000022DB03FF24A4E600251CE70123B1E7F4
:101B6000002AF1D013000025FCE60025FAE6C04665
:101B7000FFFFFF7DFFFFFFFB41024200C30F490A49
:101B8000120E00207E2A0DD99D2A0CD88020000438
:101B90000143952A0ADC9620821AD1404842002B44
:101BA00000D108007047034A9818FBE7963A914025
:101BB000F4E7C046FFFFFF7F70B500283DD0C31794
:101BC000C5185D40C40F280000F09AF99E22121A31
:101BD000962A07DCD2B2082833DD0838854068022F
:101BE000400A23E0992A0BDD052329001B1AD9405E
:101BF00003001B339D402B005D1EAB4119430D00BC
:101C0000052801DD431F9D402B000F490B406E0747
:101C100009D00F263540042D05D004335D0102D5CF
:101C20009F220B40121A9B01580AD2B24002D205E1
:101C3000400AE4071043204370BD00240022002026
:101C4000F4E76802400AF1E7FFFFFFFBF0B54F46FB
:101C50004646D6468446C0B58046194E18030F0343
:101C60004D00000B5C0082463F0B6D0DC90F914685
:101C7000640DDB0F0120B5420AD0B44203D0A54267
:101C800001D157450CD01CBC90469946A246F0BDE8
:101C900066463E43F7D1AC42F5D154461443F2D1E7
:101CA0000120C845EFD1994207D0002DEBD1634602
:101CB0001F433800471EB841E5E70020E3E7C04670
:101CC000FF070000F0B54F464646D6464D00C0B56A
:101CD0000E03C90F8A462C491F035C008046360B51
:101CE0006D0D91463F0B640DDB0F8D421ED08C4273
:101CF00016D0002D1ED130438446002C01D13A432A
:101D000023D06246002A1AD09A4529D05146022093
:101D10000139084001381CBC90469946A246F0BDE6
:101D200039001143E5D002204042F4E73043FAD1B4
:101D3000AC420FD0002C0FD13A43E7D00CE0012287
:101D4000013B934318000130E5E763460020002B78
:101D5000E1D0DBE73A43E6D19A45D7D1A542D5DCBD
:101D6000A54205DBBE42D1D808D00020BE42D2D267
:101D700050460123013898430130CCE7C845C5D807
:101D80000020C845F4D3C6E7FF070000F0B54F4672
:101D90004646D6464D00C0B50E03C90F8A462E49A9
:101DA0001F035C008046360B6D0D91463F0B640DA2
:101DB000DB0F8D4218D08C4211D0002D18D130434A
:101DC0008446002C1ED13A431CD163460020002BD0
:101DD00030D0514602200139084001382AE039004C
:101DE0001143EAD0022025E03043FBD1AC4226D09B
:101DF000002C26D13A4324D1514602200139084013
:101E0000013817E06246002A0FD09A45E1D1A54279
:101E100005DBBE42DDD819D00020BE420AD25046B2
:101E2000012301389843013004E00122013B934330
:101E3000180001301CBC90469946A246F0BD3A43BA
:101E4000D0D19A45C5D1A542C3DCE0E7C845C0D88A
:101E50000020C845E3D3EDE7FF0700004100090E6D
:101E60004B1C70B5DBB24602750AC40F012B14DDA2
:101E7000E0239B006D07360BCB1800210A0D2800CC
:101E800012051C4D32435B052A405B0813435B007F
:101E9000E4075B082343190070BD002914D1002D0D
:101EA0001ED0280000F02CF80A281CDC0B232A0086
:101EB0001B1ADA40030015339D400F4B12031B1A07
:101EC0005B05160B5B0DD8E7002D06D0320B802684
:101ED00036036D071643094BCFE7084B0026CCE7C6
:101EE00000230026C9E703002A000B3B9A40002587
:101EF000E3E7C046FFFF0F8089030000FF070000F3
:101F00001C2101231B04984201D3000C10391B0A29
:101F1000984201D3000A08391B09984201D30009ED
:101F2000043902A2105C40187047C0460403020244
:101F3000010101010000000000000000F0B589B0BF
:101F40001422002103A8FEF72BF92D4B596980209C
:101F50000003014359615A6902400092009A59698D
:101F600080208002014359615A6902400192019A1E
:101F70005A698021C9020A435A615B690B40029386
:101F8000029B204E002231009020C00501F067FB2B
:101F9000C327BF011C4D00223900280001F05FFB60
:101FA00080239B01039300240494059403A91748FC
:101FB00001F082FA0396012604960594069403A97B
:101FC0009020C00501F078FA114B0393114B049354
:101FD000059403A9280001F06FFA0397049605946D
:101FE000069403A9280001F067FA8023DB0103931C
:101FF0000494059403A9280001F05EFA09B0F0BD2D
:1020000000100240808000000004004800080048E2
:10201000068000000000111000B583B0094A516924
:10202000012319435161526913400193019B00221E
:1020300000210A2001F002FC0A2001F031FC03B06B
:1020400000BDC0460010024010B50D4C0D4B236082
:102050000D4B63600023A3600122E2602361636192
:10206000A361E3612362200000F0D8FC002120007E
:1020700000F03AFD0021200000F062FD10BDC046D6
:10208000701A0020005800405D3E302010B50E4808
:102090000E4B036082235B00436000238360E022D9
:1020A000D200C26003614361802292008261F93AEA
:1020B000FF3AC2610362436283620721C162036324
:1020C000426301F0EBFC10BD001B0020003001401A
:1020D00030B597B01022002112A8FEF761F808224F
:1020E000002110A8FEF75CF81C22002109A8FEF7C9
:1020F00057F82022002101A8FEF752F81F4D204B6F
:102100002B6000246C60AC60FA239B00EB602C61B8
:102110006C61AC61280001F06DFF80235B011293BC
:1021200012A9280002F060F8280001F07DFF109449
:10213000119410A9280002F003F960230993953344
:10214000FF330A930B940C940D940E940F94002279
:1021500009A9280001F0C6FF019402940394049495
:10216000059480239B010693089401A9280002F09E
:102170001DF9280000F088FB17B030BDC01A002000
:10218000002C014030B591B01C22002109A8FEF7B7
:1021900007F82022002101A8FEF702F8194D1A4B7A
:1021A0002B600A236B600024AC60FA239B00EB6079
:1021B0002C616C618023AB61280001F01BFF2800BB
:1021C00001F032FF6023099304330A930B940C94BB
:1021D0000D940E940F94002209A9280001F082FFAB
:1021E0000194029403940494059480239B01069324
:1021F000089401A9280002F0D9F8280000F044FB57
:1022000011B030BDD81D00200044014070B5124C03
:10221000124B236000256560A560012626732023EC
:102220002361656180239B01A361C023E361256273
:102230006562A562943BE554263B23636563A66310
:10224000200002F0FBF8064902230B608E604D600F
:10225000200002F093F970BD5C1E00200040024097
:10226000641A002010B50748074B03600823436039
:10227000063B8360036100238361C361036202F054
:10228000DDF910BD641B0020005C0040F0B5C646BF
:1022900000B582B007003E4B5A68904600221A6093
:1022A00000240DE08021C901280001F0D1F9182394
:1022B0001B1B9840364B1A681043186011E001341C
:1022C000A74218DD8026B601324D012231002800D8
:1022D00001F0C5F900223100280001F0C0F9172CE7
:1022E000E0DD2B4B1B681A02E9D5FF2212061343CF
:1022F000274A1360E3E7264B9B68DA179B18534085
:10230000FA229200934205DC1E2B3ADC204B00227D
:102310005A7404E01E4B01225A741A685A601C4C0D
:102320006068FFF749FC1C49FFF730F9051C20687D
:10233000FFF742FC1949FFF729F9011C281CFEF799
:1023400079FEFFF719FC606043461B1AA360144D29
:10235000EF68AE68FFF730FC311CFFF749FA0190D7
:102360006868311CFFF744FA011C0198FEF7FCFF76
:10237000011C381CFFF70AF9E06002B004BC90466B
:10238000F0BD034B00225A741A685A60C7E7C04672
:102390006400002000040048A4707D3F00D7233C67
:1023A000041A002070B50021204802F0D5F8012859
:1023B00006D01F4B9B7A002B29D0012B2ED070BD4D
:1023C0001A4D0021280002F0D3F8194CA37A5B00C3
:1023D000E318D8801749280002F0D0F8012128001E
:1023E00002F0F5F82B6803229A60280002F07AF8D0
:1023F000A37A5A00A418E1880F4A914203D80C4AE4
:102400000121D154D5E70A4A0021D154D1E7094B23
:1024100002221A60064B013A9A72D0E7054B042259
:102420001A60034B00229A72C9E7C0465C1E002066
:10243000581A0020641A0020B70B000010B598B09D
:10244000302200210CA8FDF7ABFE1022002107A8C6
:10245000FDF7A6FE1C2200216846FDF7A1FE202301
:102460000B931F3B13930BA800F094FB07230793D8
:10247000043B0893002409940A94012107A800F062
:1024800073FE80239B0200930694684600F00CFFC5
:1024900018B010BD70B584B000F0DAFFFFF7CEFFC2
:1024A000FFF74CFDFFF7B8FDFFF7CEFDFFF7EEFDA0
:1024B000FFF70EFEFFF766FEFFF7A8FEFFF7D2FE5E
:1024C0008021002289016A4801F0C9F802F0AEFAC1
:1024D000684C200001F029FD0021200001F004FFDC
:1024E0002368654C22885A63002002F087FA00F0C6
:1024F000CBFF624BE054624801F0F4FF2BE0614BEC
:1025000001221A7441E05F4B01225A7453E080218A
:102510000902574801F09CF8002857D15A4B187C03
:10252000FFF7B4FE90208021C00501F09EF800F076
:10253000ABFF564C2368C01A554B186000F0A4FF3F
:10254000206000F0A1FF4C4B524A9A5C80184B4A25
:102550009B5C984245D8504B5B78002B02D0494B8E
:1025600001221A744C4B1B78002B02D0454B0122E0
:102570005A74444B1B7C002B11D0434A926804329E
:10258000082ABCD801333F4A13743E4B1B7C142BE2
:1025900005D93D4B5868FFF70FFB3A4B9860394B14
:1025A0005B7C002BB3D0384A92680432082AAAD840
:1025B0000133344A5374334B5B7C142BA7D9324B11
:1025C0005868FFF7F9FA2F4B5860A0E7012000F098
:1025D00061FF2D4B5A7C80214901254801F03FF8CD
:1025E000AFE7294BDE68301CFFF738FC04000D0014
:1025F0002A4A2B4BFEF70AFD002807D0274A294B11
:1026000020002900FEF7EEFC002805D100F03CFF79
:10261000194A1A4BD0549EE7301CFFF7ADFA04005C
:10262000FFF7CAFA011C301CFFF7E2F81E49FEF75B
:10263000ADFFFFF7A1FAC21783185340E1176218E4
:102640004A401A4C1A492000FDF714FE194B029318
:1026500000230193184B009308232200002100203F
:1026600002F0D0F82D210A2002F0A6F9CEE7C046EC
:1026700000040048D81D0020780000208A190000BE
:102680005C1E0020041A002064000020541A002060
:10269000BC1A00208B190000581A00203333333342
:1026A000333F8FC0333F8F4000007A447A000020D0
:1026B000504D0008FFFF0000201A002010B59020A8
:1026C0008021C00500F0D1FF642000F0E3FEF6E7B2
:1026D0007047FEE77047704710B500F0C9FE10BDA7
:1026E00010B5FFF75FFE024801F08EFF10BDC04637
:1026F0005C1E002010B5024801F04BF810BDC0462A
:10270000181E002082B00A4B996901221143996179
:1027100099690A400092009ADA69802149050A43C2
:10272000DA61DB690B400193019B02B07047C04640
:102730000010024010B588B004001422002103A844
:10274000FDF72EFD2268134B9A4201D008B010BD50
:10275000114C62698021C9020A43626163690B40BE
:102760000193019BC0231B01039312230493113B8C
:10277000059303220692079303A9084800F09CFEE4
:10278000E2698021C9030A43E261E3690B400293D5
:10279000029BDBE7005800400010024000040048A4
:1027A00030B589B004001422002103A8FDF7F8FC1D
:1027B0001D4B22689A4201D009B030BD1B4B9A696B
:1027C00080256D012A439A619A692A400192019AF3
:1027D0005A698021C9020A435A615B690B4002931E
:1027E000029B28230393263B04930133069303A9FA
:1027F0000F4800F061FE0F480F4B03601023436049
:10280000002383608022C260036143618361C561EC
:1028100000F05CFF002803D1064B63655C62CBE7E8
:10282000FFF74CFFF8E7C0460030014000100240BF
:1028300000040048181E00203000024082B00368E7
:102840000E4A934204D00E4A93420CD002B0704715
:102850000C4A916980200001014391619369034012
:102860000093009BF2E7074A9169802080020143B0
:102870009161936903400193019BE7E7002C0140BC
:10288000004401400010024010B588B0040014223A
:10289000002103A8FDF784FC2368194A934204D061
:1028A000184A934217D008B010BD174A51698020CA
:1028B000800201435161536903400193019B8023CE
:1028C0005B000393FE3B04930793902003A9C0058C
:1028D00000F0F2FDE7E70C4A51698020C002014395
:1028E0005161536903400293029B80235B00039371
:1028F000FE3B0493079303A9044800F0DDFDD2E7F3
:10290000002C014000440140001002400004004837
:1029100030B589B004001422002103A8FDF740FC63
:1029200022681C4B9A4201D009B030BD1A4B59693C
:1029300080204004014359615A6902400192019A82
:102940005A69802189020A435A615B690B400293EC
:10295000029B0123039311330493032507959024CD
:10296000E40503A9200000F0A7FD06230393043B20
:102970000493002305930693079503A9200000F014
:102980009BFD00220021082000F058FF082000F0E5
:1029900087FFC9E7004002400010024082B0026891
:1029A000074B9A4201D002B07047064AD169802095
:1029B00000040143D161D36903400193019BF2E715
:1029C000005C0040001002404022835A02490B4341
:1029D0009BB283520020704780BFFFFF4022835A82
:1029E00002490B40835200207047C0467F400000E0
:1029F00084B010B5039104920593402201238352C1
:102A000000238352043283520C328352FFF7DCFFDF
:102A1000002010BC08BC04B01847000010B5041E0C
:102A200059D04123C35C002B43D041232422E254DC
:102A30002268136801218B4313602268274B616869
:102A40000B4013612268936825490B409360E3684B
:102A5000012B34D0226884231B02A1680B439360AE
:102A6000E368022B32D0226851681E4B0B4353603F
:102A70002268D3681A490B40D36023696269134303
:102A8000A269120221681343CB602268E369216ABC
:102A90000B4313602268136801210B43136000236A
:102AA000636441221F31A15423630132A3540020E7
:102AB00010BD40330022C254FFF73CFEB5E7226848
:102AC00080231B02A1680B439360C9E7236880221F
:102AD00012015A60C7E70120EAE7C046FFFFFFF096
:102AE000FF7FFFFF00800002F0B54123C35C202B75
:102AF00020D12033C35C012B1ED04024012202557B
:102B000041252423435506683368934333600668A0
:102B100033680A4F3B4033600668336819433160BD
:102B200001680B6813430B602023435500230355B2
:102B3000002000E00220F0BD0220FCE7FFEFFFFFD5
:102B4000F0B54123C35C202B1ED12033C35C012B85
:102B50001CD04024012202554125242343550668F8
:102B600033689343336006683368094F3B4009027A
:102B70001943316001680B6813430B6020234355F0
:102B800000230355002000E00220F0BD0220FCE7F6
:102B9000FFF0FFFF70B582B0041E00D185E203682C
:102BA000DB072BD5B34B5A680C231340042B1DD0E5
:102BB000B04B5A680C231340082B0ED06368012BCE
:102BC00041D0002B56D1AB4B1A68AB490A401A6072
:102BD0001A68AA490A401A603BE0A64B5B68C0220B
:102BE00052021340802252029342E7D1A14B1B684C
:102BF0009B0303D56368002B00D159E223689B0730
:102C000078D59C4B5B680C221A4262D0994B5A686B
:102C10000C231340082B53D0E368002B00D18BE02A
:102C2000944A136801210B43136000F02DFC05004A
:102C3000904B1B689B0776D400F026FC401B0228B3
:102C4000F6D9032032E28B4A116880235B020B43E2
:102C500013606368002B25D000F016FC0500854B3F
:102C60001B689B03CAD400F00FFC401B6428F6D9F4
:102C700003201BE2052B09D07E4B1A687E490A40CF
:102C80001A601A687D490A401A60E2E7794B1968B0
:102C90008022D2020A431A601968802252020A4333
:102CA0001A60D6E700F0F0FB0500724B1B689B032F
:102CB000A4D500F0E9FB401B6428F6D90320F5E118
:102CC0006C4B5B68C0225202134080221202934276
:102CD000A2D1684B1B689B0704D5E368012B01D088
:102CE0000120E3E163490B68F82293432269D20093
:102CF00013430B6023681B0744D5E369002B2ED0D8
:102D00005C4A536A01210B43536200F0BDFB05008E
:102D1000584B5B6A9B0735D400F0B6FB401B02287A
:102D2000F6D90320C2E153490B68F8229343226984
:102D3000D20013430B60DDE74E4A136801218B4339
:102D4000136000F0A1FB05004A4B1B689B07D1D51F
:102D500000F09AFB401B0228F6D90320A6E1454A61
:102D6000536A01218B43536200F08EFB0500414BF7
:102D70005B6A9B0706D500F087FB401B0228F6D94B
:102D8000032093E123685B0700D47FE0394BDB69C4
:102D9000DB001DD4374AD169802040050143D16151
:102DA000D36903400193019B0125354B1B68DB056B
:102DB00010D5A368012B21D0002B36D12D4B1A6AD8
:102DC00001218A431A621A6A03318A431A621AE09D
:102DD0000025EAE72A4A116880235B000B43136051
:102DE00000F052FB0600264B1B68DB05E1D400F027
:102DF0004BFB801B6428F6D9032057E11D4A136A58
:102E000001210B431362A368002B24D000F03CFB8C
:102E10000600184B1B6A9B0736D400F035FB801B5D
:102E2000184B9842F5D9032040E1052B09D0114BEE
:102E30001A6A01218A431A621A6A03318A431A62A2
:102E4000E1E70C4B1A6A04210A431A621A6A033931
:102E50000A431A62D7E700F017FB0600054B1B6A0E
:102E60009B0711D500F010FB801B064B9842F5D94B
:102E700003201BE100100240FFFFFEFFFFFFFBFFEE
:102E80000070004088130000012D3AD02368DB0653
:102E900010D56369012B3AD0053358D1884A536B5A
:102EA00004218B435363536BF4318B43A169C900F5
:102EB0000B43536323689B0600D482E0804B5A681F
:102EC0000C2313400C2B60D07D4B5A680C2313400D
:102ED000082B53D0236A002B60D0794A516B802392
:102EE0005B020B43536300F0CFFA0500744B5B6B3E
:102EF000DB0366D400F0C8FA401B0228F6D9032091
:102F0000D4E06F4AD3696F490B40D361BEE76C4B85
:102F10005A6B04210A435A635A6B03390A435A63B2
:102F200000F0B2FA0500664B5B6B9B0706D400F01D
:102F3000ABFA401B0228F6D90320B7E060494B6B7F
:102F4000F8229343A269D20013434B63B2E75C4B70
:102F50005A6B04210A435A635A6B03398A435A63F2
:102F600000F092FA0500564B5B6B9B07A2D500F070
:102F70008BFA401B0228F6D9032097E0504B5B6880
:102F8000C022520213409342A4D14D4B5B6BDB0332
:102F900017D5236A012B14D0012087E0484A536BD0
:102FA00049490B40536300F06FFA0500444B5B6BDB
:102FB000DB0306D500F068FA401B0228F6D903208F
:102FC00074E0636A002B00D174E03D4A51680C2222
:102FD0000A40082A4DD0022B12D0394A13683B49C7
:102FE0000B40136000F050FA0400354B1B689B0146
:102FF0003DD500F049FA001B0228F6D9032055E020
:103000002F4A136831490B40136000F03DFA050068
:103010002B4B1B689B0106D500F036FA401B02289B
:10302000F6D9032042E0264BDA6A0F218A43216B4E
:103030000A43DA625A6826490A40E16AA06A0143F3
:103040000A435A601968802252040A431A6000F049
:103050001BFA04001A4B1B689B0106D400F014FAFB
:10306000001B0228F6D9032020E000201EE00020EB
:103070001CE0012B20D0124B5A68D96AC0235B0296
:103080001340A06A834201D001200FE00F230B40C0
:10309000216B8B4201D0012008E0F0239B031A40F2
:1030A000E36A9A420AD0012000E0012002B070BD1C
:1030B0000120FBE70020F9E70120F7E70020F5E712
:1030C00000100240FFFFFFEFFFFFFEFFFFFFFFFECC
:1030D000FF7FC2FF30B589B004AA1F4B180032C869
:1030E00032C2110002680A606A46103313CB13C261
:1030F0001B681360194B5A680C231340082B04D02B
:103100000C2B26D0164809B030BD910C0F23194066
:1031100004A8445C1149C96A0B406946C95CC023D4
:103120005B021A4080235B029A4208D0C0235B02F4
:103130009A4209D00A48FDF7B3FE6043E3E7084826
:10314000FDF7AEFE6043DEE70648FDF7A9FE6043EB
:10315000D9E70448D7E7C046704C00080010024089
:1031600000127A00006CDC0270B504000D0000282B
:1031700000D189E0464B1A68012313408B420BD2E1
:1031800043490B68012293432B430B600B681A40A1
:10319000AA4201D0012078E023689A070ED55B0788
:1031A00005D53C4A5168E023DB000B435360394AA4
:1031B0005368F0218B43A1680B4353602368DB07FE
:1031C00035D56368012B09D0022B24D0032B28D0DE
:1031D000304A1268920705D4012056E02D4A126841
:1031E000920353D52B494A680320824313434B6013
:1031F00000F04AF90600274B5B680C221A4063680E
:103200009B009A4213D000F03FF9801B224B98425A
:10321000F1D9032039E01F4A12689201E2D401205B
:1032200033E01C4A526BD203DCD401202DE0184B52
:103230001A6801231340AB420BD915490B680122D0
:1032400093432B430B600B681A40AA4201D0012024
:103250001BE023685B0706D50E4A53680F490B40F5
:10326000E1680B435360FFF735FF0A4B5A681209B8
:103270000F2313400A4AD35CD8400A4B1860002041
:1032800000F0BEF8002000E0012070BD0120FCE746
:10329000002002400010024088130000FFF8FFFFEA
:1032A00014680008281A002070B582B00400036872
:1032B000DB0335D54B4BDB69DB0066D4494AD1696A
:1032C000802040050143D161D36903400193019BF4
:1032D0000125454B1B68DB0559D5424B1B6AC022B3
:1032E0009200134013D061680A409A420FD03D4BC0
:1032F000186A3E4A02401E6A80214902314319621F
:10330000196A3B4E314019621A62C30753D4354AD9
:10331000136A36490B4061680B431362012D59D083
:103320002368DB0706D52F4A136B03218B43A16863
:103330000B43136323689B0706D52A4A136B2D4959
:103340000B40E1680B43136323689B0606D5254AAF
:10335000136B10218B4321690B43136323689B0379
:1033600006D5204A136B80218B43A1690B4313635D
:1033700023685B0533D51B4A136B40218B4361697E
:103380000B431363002002B070BD0025A1E7164A6D
:10339000116880235B000B43136000F075F8060092
:1033A000114B1B68DB0598D400F06EF8801B642875
:1033B000F6D90320E7E700F067F80600094B1B6A1F
:1033C0009B07A4D400F060F8801B0B4B9842F5D902
:1033D0000320D8E7D36909490B40D361A0E7002057
:1033E000D1E7C0460010024000700040FFFCFFFF24
:1033F000FFFFFEFFFFFFFCFF88130000FFFFFFEF52
:1034000010B504000F4B1978FA208000FDF748FD35
:1034100001000D4B1868FDF743FD00F04DFA002840
:103420000DD1032C01D901200AE001300022210036
:10343000404200F003FA054B1C60002000E0012030
:1034400010BDC046181A0020281A00201C1A00209F
:1034500010B5064A136810210B4313600020FFF7D4
:10346000CFFFFFF74FF9002010BDC04600200240FB
:10347000034A1168034B1B785B1813607047C04602
:10348000A01E0020181A0020014B18687047C04683
:10349000A01E002070B50400FFF7F6FF0500631CB6
:1034A00002D0044B1B78E418FFF7EEFF401BA0424C
:1034B000FAD370BD181A0020F0B5C64600B582B028
:1034C000002338E0042600E00026AE4035003D43EE
:1034D0000234A400574EA551574C25684246D443A8
:1034E0002E0026404A68D20302D5424615432E00DC
:1034F000514D2E606D682E0026404A68920302D519
:10350000424615432E004C4D6E60AD682E0026409D
:103510004A68D20202D5424615432E00464DAE609F
:10352000ED682C404A68920202D542462A431400B4
:10353000414AD46001330A681400DC4076D001258A
:103540009D402A409046F5D04C68022C01D0122CA8
:103550000ED1DC080834A400275807261E40B60008
:103560000F22B24097430A69B24016003E432650EC
:1035700002685F0003242600BE40F64332409446B2
:103580004A681440BC406246144304604C68621EA2
:10359000012A03D9112C01D0122C10D18468344097
:1035A000A446CC68BC406246144384604468AC4383
:1035B0004A681209012515409D4025434560C468AD
:1035C00026408C68BC403443C4604A68D200B1D500
:1035D0001A4DAE6901242643AE61AD692C400194B9
:1035E000019C9C08A51CAD00124EAF5903261E403D
:1035F000B5000F26AE40B7439026F605B04200D185
:1036000062E70F4EB0420BD00E4EB0420AD00E4EC3
:10361000B04209D00D4EB04200D153E7052654E721
:10362000012652E7022650E703264EE702B004BC0B
:103630009046F0BD0000014000040140001002402F
:103640000004004800080048000C00480010004832
:1036500003690B4201D1002070470120FCE7002ADA
:1036600001D1816270478161FCE74369194201D150
:103670008161704709048161FBE770B5C56B012466
:10368000066CB4406C60046863604368102B04D01F
:10369000036899600368DA6070BD03689A60036824
:1036A000D960F9E710B504000368064A94466344FC
:1036B00018001421FDF7F4FB80002064024BE36343
:1036C00010BDC046F8FFFDBF0000024070B5041EEB
:1036D00020D021250223435501680B680E4A1A4069
:1036E000436880680343E0680343206903436069DB
:1036F0000343A0690343E069034313430B602000C5
:10370000FFF7D0FF0023A363012262551F32A354A9
:10371000002070BD0120FCE70FC0FFFF70B5040062
:103720002020205C012832D02020012525540130A2
:10373000205C012804D020230022E254022070BD26
:103740002030013525540020A06325682868012613
:10375000B04328602000FFF790FFE36A002B0BD0F6
:10376000226813680E210B4313602268136801213D
:103770000B4313600020E2E7226813680A210B4321
:1037800013602268136806398B431360EDE702204B
:10379000D5E770B5C36B1A6804682568016C04230B
:1037A0008B401A4212D06B0710D523689B0603D4B6
:1037B0002368042293432360C26B0423016C8B4073
:1037C0005360C36A002B00D0984770BD02238B4022
:1037D0001A4218D0AB0716D523689B0606D4236877
:1037E0000A22934323602123093AC254C26B022365
:1037F000016C8B40536020230022C254836A002B4B
:10380000E3D09847E1E708238B401A42DDD02B072D
:10381000DBD523680E2293432360C26B012319007A
:10382000046CA14051608363212283541F33002222
:10383000C254036B002BC8D09847C6E770B5002868
:1038400011DB8308144DC0339B005C5903221040E8
:10385000C000FC3216008640B44389010A40824011
:1038600022435A5170BDC0B20F230340083B9B084E
:1038700006339B00094A944663445D680324204054
:10388000C000FF2214008440A543890111408140FB
:1038900029435960E6E7C04600E100E000ED00E0A2
:1038A000002805DB1F2318401E3B8340014A13609C
:1038B0007047C04600E100E001380A4B98420FD83B
:1038C000094A50600948036A1B021B0AC021090605
:1038D0000B4303620023936007331360002070479B
:1038E0000120FCE7FFFFFF0010E000E000ED00E03A
:1038F000F8B506000C0017001D0033689B682340D4
:103900001B1B5A425341BB423BD06B1CF5D0FFF707
:10391000BBFD069BC01AA84201D2002DEDD1326832
:103920005368E0218B43536082235B0072689A42A4
:103930000CD080239B01B26A9A4216D05D230122EB
:10394000F254013B0022F25403201BE0B3688022B2
:103950001202934203D08022D2009342E9D132680E
:10396000136840218B431360E3E73268136806490C
:103970000B4013603268116880239B010B43136076
:10398000DCE70020F8BDC046FFDFFFFFF8B5070009
:103990000C0015001E0001E0731C0CD13A689368FE
:1039A0002340AB4241D0C023DB009C42F4D1002D28
:1039B000F2D1137BF0E7FFF767FD069BC01AB04218
:1039C00001D2002EEAD13A685368E0218B4353605C
:1039D00082235B007A689A420CD080239B01BA6AEA
:1039E0009A4216D05D230122FA54013B0022FA5478
:1039F00003201BE0BB6880221202934203D0802286
:103A0000D2009342E9D13A68136840218B43136096
:103A1000E3E73A68136806490B4013603A68116897
:103A200080239B010B431360DCE70020F8BDC046F8
:103A3000FFDFFFFF70B582B004000D001600C0214B
:103A400000922B0000224901FFF7A0FF002818D1A7
:103A500000962B00002280212000FFF749FF00285C
:103A600016D1C02100962B000022C9002000FFF7CC
:103A70008DFF00280AD0236E2022134323660320E3
:103A800004E0236E202213432366032002B070BD9E
:103A9000236E2022134323660320F7E710B5041E8C
:103AA0005ED0002383625D33C35C002B4CD05D236A
:103AB0000222E2542268136840218B431360E368BA
:103AC000E022D200934245D90022F02109018B4225
:103AD00005D0E021C9008B4201D00021A162216BF9
:103AE000002905D1E021C9008B4236D90223236386
:103AF0006368A1680B4321690B4361690B43802113
:103B00008900A06901400B43E1690B43216A0B4323
:103B10002168A06A03430B60618B04230B40616A38
:103B20000B43616B0B43E1680B43216813434B600C
:103B30002268D3690B490B40D361002323665D33B0
:103B40000122E254002010BD5C330022C254FEF773
:103B500027FEACE780225201B7E701232363C7E7C2
:103B60000120F0E7FFF7FFFF10B504005C23C35C02
:103B7000012B00D186E05C230120E0540133E35C9B
:103B8000012B04D002205C230022E25410BD002946
:103B900074D0002A74D05C330230E05400232366D2
:103BA000A163A287E28723642365E3644422A352CE
:103BB0000232A35280231B02A2689A422ED0636D68
:103BC000314ADA62636D314A9A62636D304A1A6330
:103BD000636D00225A63226853682E490B4053607C
:103BE000E023DB00E2689A4205D8636D5A698023BE
:103BF000DB009A4219D022680C32E38F9BB2A16B92
:103C0000606DFFF78BFD002825D0236E1022134333
:103C100023665D230F3AE2540120B4E7226811685D
:103C20008023DB010B431360C9E7E38FDB0707D475
:103C3000226853680B405360E38F5B08E387DAE741
:103C4000226851688023DB010B435360E38F5B08DC
:103C50000133E387CFE723681A68520603D41A6852
:103C600040210A431A602268536820210B435360A5
:103C7000226853681E390B43536084E7012082E7B2
:103C8000012080E7022081E79D3C0008CB3C000832
:103C9000A93C0008FFBFFFFF7047704710B5406A9E
:103CA000FFF7FBFF10BD704710B5406A026853680C
:103CB00003218B435360036E1022134303665D237D
:103CC0000F3AC254FFF7EFFF10BD30B583B00500C7
:103CD000446AFFF7D9FB2B681B689B0626D4226831
:103CE000536820218B435360226853681E398B43ED
:103CF0005360020062312000FFF79CFE002803D0D1
:103D0000236E202213432366A368002B06D1019360
:103D10002368DA6801929B680193019B0023E38783
:103D20005D330122E254236E002B04D12000FFF703
:103D3000B3FF03B030BD2000FFF7B5FFF9E7000087
:103D400030B5036A012293430362036A42688469BF
:103D50007325AC430D682C430225AB438D682B4380
:103D6000144DA84208D0144DA84205D0134DA842C6
:103D700002D0134DA84205D10825AB43CD682B4393
:103D80000425AB430B4DA84208D00B4DA84205D0EB
:103D90000A4DA84202D00A4DA84205D1094D2A4039
:103DA0004D692A438D692A43426084614A684263AF
:103DB000036230BD002C014000400140004401403E
:103DC00000480140FFFCFFFF70B5036A194A134029
:103DD0000362036A4268C4697325AC430E682643D4
:103DE000154C23408C6824022343144CA04219D064
:103DF000124CA04208D0124CA04205D0114CA04257
:103E000002D0114CA04207D1104C14404A69120153
:103E100022438C6925012A434260C6614A68C26315
:103E2000036270BD0A4C1C40CB681B022343094C43
:103E30002340DDE7FFFEFFFFFFFDFFFF002C0140F9
:103E4000004001400044014000480140FFCFFFFF17
:103E5000FFF7FFFFFFFBFFFF30B5036A134A134074
:103E60000362026A4368C469114D2C400D682D023B
:103E70002C43104D15408A6812032A430E4DA84268
:103E800008D00E4DA84205D00D4DA84202D00D4DD0
:103E9000A84204D10C4D2B404D69AD012B4343602A
:103EA000C4614B680364026230BDC046FFEFFFFF90
:103EB000FF8CFFFFFFDFFFFF002C014000400140AF
:103EC0000044014000480140FFBFFFFF30B5036AD6
:103ED000046A0125AC4304628469EF35AC431201E6
:103EE00022430A24A34319438261016230BD0000CA
:103EF00030B5036A1024A34303628469036A054D45
:103F00002C4012032243A024A343090119438261D8
:103F1000016230BDFF0FFFFF0B00816870229143EB
:103F2000194307231943816070473D230222C2547D
:103F300002689168363B0B40062B03D013680121C1
:103F40000B4313603D230122C25400207047704789
:103F50000368214A904206D08022D205904202D0C6
:103F60001E4A904203D1702293434A6813431A4A6F
:103F7000904212D08022D20590420ED0174A904231
:103F80000BD0174A904208D0164A904205D0164AE4
:103F9000904202D0154A904203D1154A1340CA6894
:103FA0001343802293434A69134303608B68C362BF
:103FB0000B688362084B984208D00A4B984205D0A0
:103FC000094B984202D0094B984201D10B69036317
:103FD000012343617047C046002C014000040040AB
:103FE00000200040004001400044014000480140E2
:103FF000FFFCFFFF70B5041E14D03D23C35C002BF3
:104000000AD03D2502236355211D2068FFF7A0FF3C
:1040100001236355002070BD3C330022C254FEF7DB
:104020000DFCEEE70120F6E770B5041E14D03D2329
:10403000C35C002B0AD03D2502236355211D206857
:10404000FFF786FF01236355002070BD3C3300223B
:10405000C254FFF77CFFEEE70120F6E770B5036A74
:10406000102293430362036A42688469174D2C400F
:104070000D682D0225432024A3438C68240123438B
:10408000134CA04219D0124CA04208D0114CA042AF
:1040900005D0114CA04202D0104CA04207D1104CC8
:1040A00014404A69920022438C69A6003243426060
:1040B00085614A688263036270BD8024A3431C004B
:1040C000CB681B0123434024A343DCE7FF8CFFFFA5
:1040D000002C0140004001400044014000480140E4
:1040E000FFF3FFFF70B504000D003C23C35C012B00
:1040F00069D03C230121C15401330131C154042A48
:1041000037D019D9082A4AD00C2A2AD129000068A8
:10411000FFF7A2FE2268D16980231B010B43D36104
:104120002268D36929490B40D3612168CB692A6988
:1041300012021343CB6114E0002A12D12900006857
:10414000FFF7FEFD2268936908210B439361226803
:10415000936904398B4393612268936929690B43FE
:1041600093613D230122E254013B0022E2540020EE
:1041700070BD29000068FFF771FF226891698023F4
:104180001B010B4393612268936910490B409361B3
:1041900021688B692A69120213438B61E1E72900C8
:1041A0000068FFF711FE2268D36908210B43D36131
:1041B0002268D36904398B43D3612268D3692969A2
:1041C0000B43D361CDE70220D2E7C046FFFBFFFFE0
:1041D00030B58468034D2C401B021A431143214320
:1041E000816030BDFF00FFFF10B504003C23C35CBD
:1041F000012B66D03C230122C25401330132C25448
:10420000026893683048034093600B68402B4ED09F
:1042100015D9602B41D021D9702B2BD0802292014F
:10422000934232D1CB684A6889682068FFF7D0FF93
:10423000226891688023DB010B43936025E0102BFB
:1042400007D004D9202B04D0302B02D01DE0002B46
:104250001BD119002068FFF75FFE16E0502B14D128
:10426000CA6849682068FFF731FE50212068FFF7CF
:1042700053FE0AE0CB684A6889682068FFF7A8FF08
:104280002268936877210B4393603D230122E25417
:10429000013B0022E254002010BDCA684968206832
:1042A000FFF726FE60212068FFF736FEEDE7CA68BB
:1042B00049682068FFF70AFE40212068FFF72CFEBE
:1042C000E3E70220E8E7C0468800FFFF10B51F23A0
:1042D000194001248C40036AA3430362036A8A40A5
:1042E0001A43026210BD000010B5040001220068EC
:1042F000FFF7ECFF23680E4A934208D00D4A934221
:1043000005D00D4A934202D00C4A934204D1596C15
:10431000802212020A435A642268916807230B40E4
:10432000062B03D0136801210B431360002010BD3E
:10433000002C014000400140004401400048014081
:1043400030B53C23C35C012B28D03C230122C2544E
:1043500001330132C25403685A689C687025AA432D
:104360000D682A435A6003680D4A934209D080229F
:10437000D205934205D00B4A934202D00A4A934297
:1043800004D1802294434A6814439C603D23012257
:10439000C254013B0022C254002030BD0220FCE781
:1043A000002C0140000400400040014010B53C23B7
:1043B000C35C012B21D03C2201238354104BCC68D9
:1043C00023408C6823430F4C23404C6823430E4CFE
:1043D00023400C6823430D4C23400C6923430C4CB1
:1043E00023404C6923430B4C2340C9690B430168AC
:1043F0004B6400238354002010BD0220FCE7C0461C
:10440000FFFCFFFFFFFBFFFFFFF7FFFFFFEFFFFFDB
:10441000FFDFFFFFFFBFFFFF10B5040000230020F8
:1044200000E00133072B08D899000F228A4014427C
:10443000F7D001229A401043F3E710BD70B5041E77
:104440004ED03C23C35C002B3DD03C230222E254DF
:104450002368013A1A60206802686368A1680B4308
:10446000216949040B4361690B43A1690B43E1696D
:104470000B43616A0B43A16A0B4313430360237B25
:10448000012B26D0236B626B1343A26B134322686C
:10449000DB4313612268236B616B0B4393622368D8
:1044A000A26B1A622568206BFFF7B6FF28632168AC
:1044B0004B68032293434B6023689A603C23023A83
:1044C000E254002070BD3D330022C254FEF720FAB2
:1044D000BBE72268116880235B020B431360D1E7BE
:1044E0000120EFE73D23C35C012B33D001213D23A5
:1044F000C154013B0222C254026853680B4353600B
:104500002C23C35C012B19D00268536802218B4312
:104510005360036803229A60036A002B14D1026877
:10452000136810218B4313600268136802210B4348
:1045300013603D230022C254002070470268536874
:1045400001310B435360E4E70268136810210B4309
:104550001360E9E70220F0E703681A6B0F231940A4
:10456000103101208840904343425841C0B2704707
:1045700003680C31890059184868704770B5040009
:104580003D23C35C012B20D03D2501234355026808
:1045900013680220834313600B684A6813438A68D8
:1045A00013432268DB43136122680B6848680343A6
:1045B000936223688A681A6226680868FFF72CFFEE
:1045C000306300236355002070BD0220FCE73D23CB
:1045D000C35C012B14D03D230122C254012909D010
:1045E0000268136810210B4313603D230022C2545C
:1045F00000207047026813680F318B431360F4E7A3
:104600000220F6E77047704710B50368DA68D207F2
:1046100001D501229A600368DA68920705D43C2329
:104620000122C254FFF7EEFF10BD02229A603C2324
:104630000132C254FFF7E7FFF6E7000030B587B05C
:10464000041E61D0314BC35C002B07D02F4B0322DB
:10465000E2542068FEF7C2F900231AE08A239B0087
:104660000022C254FEF79AF9F0E75A01A21811008D
:1046700029310120087001390B70D38610002B30CE
:10468000002101709163D1639A1C520111510133D1
:10469000DBB260688342E8D3002215E05301E318DF
:1046A0001D002A35FF3500212970013D2A70033590
:1046B00029700D3529603D33FF33196013000A332B
:1046C0005B0119510132D2B29042E7D86A46230009
:1046D000103323CB23C203CB03C26168A268E36813
:1046E0002068FEF785F924230022E254074B0132AB
:1046F000E254E369012B02D0002007B030BD200056
:1047000000F006F80020F8E70120F6E72902000093
:1047100002689A239B000121C150083B0021C1542B
:104720005423D15A01200143D152D15A02200143CE
:10473000D1520020704700008823181A713B5B1A81
:104740001901C918CB00C01804304000014B1818DB
:104750004280704778000020F0B5DE4657464E464E
:10476000C0B582B082468B4699460AAB1B8800933F
:104770000BAB1B8801939F283ED84F293CD8203A89
:104780004B46DE8872439988CE0807230B40591E9A
:104790008B41F61856434B461B689C4666440027DF
:1047A00024E05B46D91953461819009AFFF7C4FF55
:1047B000072D14D00134A4B24B469B88A34210D9D4
:1047C00032780725254080232B411342E9D05B46F0
:1047D000D91953461819019AFFF7AEFFE8E70136D9
:1047E000E8E75B0700D001360137BFB24B46DB88F4
:1047F000BB4201D90024DFE702B01CBC91469A46B7
:10480000A346F0BDF0B5DE46574680B585B00290B0
:10481000039116000CAB20CB1B889A460EAB1B886D
:104820009B469F2823D84F2921D80F0004000CE075
:104830005B460193534600932B0039002000FFF79D
:104840008BFF0136AB881C19A4B23278002A0ED037
:10485000AB88E3189F2B03DDEB88DF19BFB2029C06
:10486000EB88FB184F2BE3DD039F029CE0E705B0CC
:104870000CBC92469B46F0BD70B5002280210D48CD
:10488000FEF7EDFE1420FEF705FE80252D02902494
:10489000E405002229002000FEF7E1FE1420FEF7C7
:1048A000F9FD012229002000FEF7D9FE1420FEF7B1
:1048B000F1FD70BD0004004830B583B06B46DC1DCF
:1048C000D871094D002280212800FEF7C8FE012280
:1048D00040212800FEF7C3FE012221000348FFF714
:1048E00043F903B030BDC04600040048001B00205F
:1048F00030B583B06B469C1DD880094D00228021C5
:104900002800FEF7ACFE012240212800FEF7A7FE9A
:10491000022221000348FFF727F903B030BDC0464B
:1049200000040048001B002030B583B06B46DC1D3E
:10493000D871094D002280212800FEF790FE002248
:1049400040212800FEF78BFE012221000348FFF7DB
:104950000BF903B030BDC04600040048001B002026
:10496000F8B5013087B2013296B21A318DB21A33DE
:104970009CB22A20FFF7D8FF380AFFF79DFFF8B254
:10498000FFF79AFF300AFFF797FFF0B2FFF794FFA7
:104990002B20FFF7C9FF280AFFF78EFFE8B2FFF7C9
:1049A0008BFF200AFFF788FFE0B2FFF785FF2C207E
:1049B000FFF7BAFFF8BD000010B50B0017339BB22C
:1049C0000200873292B2FFF7CBFF084C0022802111
:1049D0002000FEF744FE012240212000FEF73FFEAA
:1049E000034A04490448FFF7BFF810BD000400481B
:1049F0007F19000082000020001B002070B5050018
:104A00004F239F2200210020FFF7AAFF002608E085
:104A10002800FFF76DFF0134A4B24F2CF8D90136FE
:104A2000B6B29F2E01D80024F7E770BD10B5FFF78E
:104A300023FF1120FFF778FF7820FEF72BFD2120C0
:104A4000FFF772FF2120FFF76FFFB120FFF76CFF28
:104A50000520FFF731FF3A20FFF72EFF3A20FFF73E
:104A60002BFFB220FFF760FF0520FFF725FF3A205C
:104A7000FFF722FF3A20FFF71FFFB320FFF754FF95
:104A80000520FFF719FF3A20FFF716FF3A20FFF73E
:104A900013FF0520FFF710FF3A20FFF70DFF3A2024
:104AA000FFF70AFFB420FFF73FFF0320FFF704FFE3
:104AB000C020FFF739FF6220FFF7FEFE0220FFF75C
:104AC000FBFE0420FFF7F8FEC120FFF72DFFC020FA
:104AD000FFF7F2FEC220FFF727FF0D20FFF7ECFEE5
:104AE0000020FFF7E9FEC320FFF71EFF8D20FFF730
:104AF000E3FE6A20FFF7E0FEC420FFF715FF8D20DC
:104B0000FFF7DAFEEE20FFF7D7FEC520FFF70CFF18
:104B10000E20FFF7D1FEE020FFF706FF1020FFF781
:104B2000CBFE0E20FFF7C8FE0220FFF7C5FE0320D4
:104B3000FFF7C2FE0720FFF7BFFE0E20FFF7BCFE07
:104B40000720FFF7B9FE0220FFF7B6FE0A20FFF7A5
:104B5000B3FE1220FFF7B0FE2720FFF7ADFE37208F
:104B6000FFF7AAFE0020FFF7A7FE0D20FFF7A4FE27
:104B70000E20FFF7A1FE1020FFF79EFEE120FFF7B9
:104B8000D3FE1020FFF798FE0E20FFF795FE0320BE
:104B9000FFF792FE0320FFF78FFE0F20FFF78CFE3A
:104BA0000620FFF789FE0220FFF786FE0820FFF7A8
:104BB00083FE0A20FFF780FE1320FFF77DFE2620EC
:104BC000FFF77AFE3620FFF777FE0020FFF774FE2E
:104BD0000D20FFF771FE0E20FFF76EFE1020FFF78D
:104BE0006BFE3A20FFF7A0FE0520FFF765FE36209A
:104BF000FFF79AFEA820FFF75FFE2920FFF794FE3B
:104C000010BD70470D4885460D480E490E4A0023D9
:104C100002E0D458C4500433C4188C42F9D30B4A70
:104C20000B4C002301E013600432A242FBD3FFF7D8
:104C3000E8FFFBF791FAFDF72DFCFEE700400020AE
:104C4000000000202C1A0020686800082C1A0020A0
:104C5000A81E0020FEE70000F8B5C046F8BC08BC5E
:104C60009E467047F8B5C046F8BC08BC9E467047E3
:104C700002030405060708090A0B0C0D0E0F10109D
:104C80000102030405060708090A0B0C0D0E0F109C
:104C9000E61400082214000846140008E413000873
:104CA00046140008C214000846140008E413000863
:104CB0002214000822140008C2140008E41300089B
:104CC000181500081815000818150008CE1400085B
:104CD000221400082214000846140008E2130008F9
:104CE00046140008C214000846140008E213000825
:104CF0002214000822140008C2140008E21300085D
:104D0000181500081815000818150008CC1400081C
:104D1000841600082E1600082E1600085C170008DE
:104D20002A1600082A160008521700085C17000807
:104D30002A160008521700082A1600085C170008F7
:104D4000601700086017000860170008681700085F
:104D5000253033642E2530336467000000000000E6
:104D60000000000000000000000000000000000043
:104D70000000000000000000000000000000000033
:104D80000000000000000000000000000000000023
:104D90000000000000000000000000000000000013
:104DA00000000000000000000000038000038000FD
:104DB0000380000380000380000380000380000361
:104DC00080000380000100000100000000000000DE
:104DD00000038000038000000000000000000000CD
:104DE00000000000000000000000000000000000C3
:104DF00000000000000E70000E70000E7000042015
:104E00000004200004200004200000000000000036
:104E10000000000000000000000000000000000092
:104E20000000000000000000000000000000000082
:104E300000000000000000000000066000066000A6
:104E40000660000660000660003FF8003FF80006BC
:104E500060000CC0003FF8003FF8000CC0000CC020
:104E6000000CC0000CC0000CC000000000000000DE
:104E70000000000000000000000000000000000131
:104E8000800001800007B0000FF00018700018705B
:104E9000001C00000F800007E00000F00018300048
:104EA0001C30001C70001FE0001BC00001800001CE
:104EB0008000018000018000000000000000000070
:104EC000000000000000000000000780000FC0008C
:104ED0001CE0001860001860001CE0000FF80007DC
:104EE000E0001FF000073800061800061800073819
:104EF0000003F00001E000000000000000000000DE
:104F000000000000000000000000000000000000A1
:104F1000000000000000000003F00007F0000C603B
:104F2000000C00000C00000600000700000F9C00B1
:104F30001DFC0018F0001870000FFC0007DC0000DA
:104F40000000000000000000000000000000000061
:104F500000000000000000000000000000038000CE
:104F60000380000380000100000100000100000137
:104F70000000000000000000000000000000000031
:104F80000000000000000000000000000000000021
:104F90000000000000000000000000000000000011
:104FA000000000180000380000700000F00000E071
:104FB0000000E00001C00001C00001C00001C0000D
:104FC00001C00001C00000E00000E000007000002F
:104FD0007000003800001800000000000000000011
:104FE000000000000000000000001800001C00008D
:104FF0000E00000E00000700000700000380000301
:10500000800003800003800003800003800007000D
:10501000000700000F00000E00001C000018000038
:105020000000000000000000000000000000000080
:1050300000000180000180000180001DB8001FF801
:105040000007E00003C00003C00006600006600027
:105050000000000000000000000000000000000050
:105060000000000000000000000000000000000040
:105070000000000000000000000000000000000030
:105080000180000180000180000180000180003F5C
:10509000FC003FFC000180000180000180000180D5
:1050A000000180000000000000000000000000007F
:1050B00000000000000000000000000000000000F0
:1050C00000000000000000000000000000000000E0
:1050D00000000000000000000000000000000000D0
:1050E00000000000000000E00000C00001C000015E
:1050F00080000180000300000300000000000000A9
:10510000000000000000000000000000000000009F
:105110000000000000000000000000000000001F70
:10512000F8001FF800000000000000000000000070
:10513000000000000000000000000000000000006F
:10514000000000000000000000000000000000005F
:10515000000000000000000000000000000000004F
:10516000000000000000000000000000000000003F
:1051700000000000000003C00003C00003C00000E6
:10518000000000000000000000000000000000001F
:105190000000000000180000180000380000300077
:1051A00000700000600000600000C00000C000014E
:1051B00080000180000300000300000600000600DC
:1051C000000E00000C00001C000018000018000079
:1051D00000000000000000000000000000000000CF
:1051E000000003C00007E0000C30000C300018186D
:1051F00000181800181800181800181800181800BF
:105200001818000C30000C300007E00003C000004C
:10521000000000000000000000000000000000008E
:105220000000000000000000000000800007800077
:105230001F80001D800001800001800001800001AE
:105240008000018000018000018000018000018059
:10525000001FF8001FF80000000000000000000020
:10526000000000000000000000000000000000003E
:10527000000007C0001FF000383000301800301860
:105280000000180000300000600001C00003800032
:105290000600000C00001800003FF8003FF8000076
:1052A00000000000000000000000000000000000FE
:1052B0000000000000000000000003C0000FE0003C
:1052C0000C700000300000300000600003C00003DC
:1052D000E0000070000018000018000018001838E6
:1052E000001FF0000FC000000000000000000000E0
:1052F00000000000000000000000000000000000AE
:10530000000000E00001E00001E000036000066032
:10531000000660000C60000C600018600030600047
:105320003FF8003FF80000600003F80003F80000B9
:10533000000000000000000000000000000000006D
:10534000000000000000000000001FF0001FF0003F
:105350001800001800001800001BC0001FF0001CFF
:10536000300000180000180000180000180030304D
:10537000003FF0000FC0000000000000000000002F
:10538000000000000000000000000000000000001D
:10539000000000F80003F8000700000E00000C00F9
:1053A000001800001BC0001FF0001C30001818007F
:1053B0001818001818000C38000FF00003E0000067
:1053C00000000000000000000000000000000000DD
:1053D000000000000000000000001FF8001FF8009F
:1053E000181800183800003000003000007000006D
:1053F000600000600000E00000C00000C00001C0CC
:10540000000180000180000000000000000000009A
:10541000000000000000000000000000000000008C
:10542000000007E0000FF0001C38001818001818E2
:10543000000C300007E00007E0000C3000181800F6
:105440001818001818001C38000FF00007E00000C2
:10545000000000000000000000000000000000004C
:105460000000000000000000000007C0000FF00076
:105470001C30001818001818001818000C38000FFD
:10548000F80003D80000180000300000700000E0B1
:10549000001FC0001F00000000000000000000000E
:1054A00000000000000000000000000000000000FC
:1054B000000000000000000000000000000003C029
:1054C0000003C00003C00000000000000000000056
:1054D00000000000000003C00003C00003C0000083
:1054E00000000000000000000000000000000000BC
:1054F00000000000000000000000000000000000AC
:1055000000000000000000F00000F00000F00000CB
:10551000000000000000000000000000E00001C0EA
:105520000001800001800003000002000000000074
:10553000000000000000000000000000000000006B
:105540000000000000000000001C00003C0000F013
:105550000003C0000F00003C0000F000003C000011
:105560000F000003C00000F000003C00001C000021
:10557000000000000000000000000000000000002B
:10558000000000000000000000000000000000001B
:105590000000000000000000007FFC007FFC000015
:1055A00000000000007FFC007FFC00000000000005
:1055B00000000000000000000000000000000000EB
:1055C00000000000000000000000000000000000DB
:1055D00000000000000000007000007800001E00C5
:1055E0000007800001E000007800001E0000780045
:1055F00001E0000780001E0000780000700000003D
:10560000000000000000000000000000000000009A
:105610000000000000000000000000000007C000C3
:105620000FE0001870001830001830000070000003
:10563000E00003C000038000030000000000000041
:10564000000700000700000000000000000000004C
:10565000000000000000000000000000000000004A
:10566000000003E00007F0000E38000C1800187866
:105670000018F80019D80019980019980019980016
:1056800018F8001878001800000C00000E18000729
:10569000F80003E00000000000000000000000002F
:1056A000000000000000000000000000001F80005B
:1056B0001FC00001C0000360000360000630000648
:1056C00030000C30000FF8001FF800180C00300CF0
:1056D00000FC7F00FC7F00000000000000000000D4
:1056E00000000000000000000000000000000000BA
:1056F00000000000007FE0007FF00018380018185C
:10570000001818001838001FF0001FF800181C00BF
:10571000180C00180C00180C007FF8007FF0000037
:105720000000000000000000000000000000000079
:105730000000000000000000000000000003EC007A
:105740000FFC001C1C00180C00300C003000003056
:105750000000300000300000300000180C001C1C5D
:10576000000FF80003F0000000000000000000003F
:105770000000000000000000000000000000000029
:1057800000000000007FC0007FF0001838001818EB
:1057900000180C00180C00180C00180C00180C0055
:1057A000180C001818001838007FF0007FE0000087
:1057B00000000000000000000000000000000000E9
:1057C000000000000000000000000000007FF80062
:1057D0007FF8001818001818001998001980001F89
:1057E00080001F80001980001998001818001818F0
:1057F000007FF8007FF800000000000000000000BB
:105800000000000000000000000000000000000098
:1058100000000000003FFC003FFC000C0C000C0CE2
:10582000000CCC000CC0000FC0000FC0000CC0006A
:105830000CC0000C00000C00003FC0003FC0000086
:105840000000000000000000000000000000000058
:105850000000000000000000000000000003EC0059
:105860000FFC001C1C00180C00300C003000003035
:10587000000030FE0030FE00300C00380C001C1C14
:10588000000FFC0003F0000000000000000000001A
:105890000000000000000000000000000000000008
:1058A00000000000007E7E007E7E001818001818A0
:1058B000001818001818001FF8001FF8001818002A
:1058C0001818001818001818007E7E007E7E000050
:1058D00000000000000000000000000000000000C8
:1058E000000000000000000000000000001FF800A1
:1058F0001FF800018000018000018000018000018C
:105900008000018000018000018000018000018092
:10591000001FF8001FF80000000000000000000059
:105920000000000000000000000000000000000077
:10593000000000000007FE0007FE000030000030FD
:105940000000300000300000300030300030300007
:105950003030003030003060003FE0000F80000049
:105960000000000000000000000000000000000037
:10597000000000000000000000000000007F3E006A
:105980007F3E0018300018600018C0001980001B0E
:1059900080001FC0001CE00018700018300018388C
:1059A000007F1F007F1F00000000000000000000BB
:1059B00000000000000000000000000000000000E7
:1059C00000000000007F80007F80000C00000C00C1
:1059D000000C00000C00000C00000C00000C0C007F
:1059E0000C0C000C0C000C0C007FFC007FFC000079
:1059F00000000000000000000000000000000000A7
:105A000000000000000000000000000000F00F0097
:105A1000F81F00381C003C3C003C3C00366C003653
:105A20006C0033CC0033CC00318C00300C00300CD7
:105A300000FE7F00FE7F000000000000000000006C
:105A40000000000000000000000000000000000056
:105A5000000000000078FE0078FE001C18001E18F0
:105A6000001F18001B18001B980019D80018D80038
:105A700018F8001878001838007F18007F18000008
:105A80000000000000000000000000000000000016
:105A90000000000000000000000000000003C00043
:105AA0000FF0001C3800181800381C00300C0030B3
:105AB0000C00300C00300C00381C001818001C388A
:105AC000000FF00003C00000000000000000000014
:105AD00000000000000000000000000000000000C6
