:020000040800F2
:10000000004000201D21000891060008930600080A
:1000100000000000000000000000000000000000E0
:10002000000000000000000000000000950600082D
:100030000000000000000000970600089906000874
:100040006D2100086D2100086D2100086D21000858
:100050006D2100086D2100086D2100086D21000848
:10006000A10600086D210008B10600086D210008F6
:100070006D2100086D2100086D2100086D21000828
:100080006D2100086D2100086D2100086D21000818
:100090006D2100086D2100086D2100086D21000808
:1000A0006D2100086D2100086D2100086D210008F8
:1000B0006D2100086D2100086D2100086D210008E8
:1000C00010B5064C2378002B07D1054B002B02D02E
:1000D000044800E000BF0123237010BD0C00002085
:1000E00000000000C8210008044B10B5002B03D00D
:1000F0000349044800E000BF10BDC04600000000F6
:1001000010000020C8210008002243088B4274D34D
:1001100003098B425FD3030A8B4244D3030B8B4208
:1001200028D3030C8B420DD3FF22090212BA030C11
:100130008B4202D31212090265D0030B8B4219D3F2
:1001400000E0090AC30B8B4201D3CB03C01A524112
:10015000830B8B4201D38B03C01A5241430B8B425A
:1001600001D34B03C01A5241030B8B4201D30B0343
:10017000C01A5241C30A8B4201D3CB02C01A52416A
:10018000830A8B4201D38B02C01A5241430A8B422D
:1001900001D34B02C01A5241030A8B4201D30B0216
:1001A000C01A5241CDD2C3098B4201D3CB01C01A30
:1001B000524183098B4201D38B01C01A524143093A
:1001C0008B4201D34B01C01A524103098B4201D328
:1001D0000B01C01A5241C3088B4201D3CB00C01A95
:1001E000524183088B4201D38B00C01A524143080D
:1001F0008B4201D34B00C01A5241411A00D2014632
:10020000524110467047FFE701B5002000F006F8A4
:1002100002BDC0460029F7D076E770477047C04658
:10022000F0B589B01422002103A801F0C5FF2D4BC1
:10023000596980200003014359615A6902400092C4
:10024000009A596980208002014359615A6902402D
:100250000192019A5A698021C9020A435A615B6975
:100260000B400293029B204E002231009020C005DB
:1002700001F0D3F9C327BF011C4D0022390028002B
:1002800001F0CBF980239B0103930024049405948F
:1002900003A9174801F0EEF8039601260496059489
:1002A000069403A99020C00501F0E4F8114B0393D4
:1002B000114B0493059403A9280001F0DBF8039780
:1002C00004960594069403A9280001F0D3F880232E
:1002D000DB0103930494059403A9280001F0CAF8F4
:1002E00009B0F0BD0010024080800000000400480A
:1002F00000080048068000000000111000B583B01F
:10030000094A51690123194351615269134001930C
:10031000019B002200210A2001F020FA0A2001F0AE
:100320004FFA03B000BDC0460010024010B50D4C9E
:100330000D4B23600D4B63600023A3600122E2603C
:1003400023616361A361E3612362200000F044FB49
:100350000021200000F0A6FB0021200000F0CEFBD1
:1003600010BDC04628000020005800405D3E3020EF
:1003700010B50E480E4B036082235B0043600023E0
:100380008360E022D200C260036143618022920058
:100390008261F93AFF3AC2610362436283620721D4
:1003A000C1620363426301F033FA10BDB400002060
:1003B0000030014030B597B01022002112A801F0A2
:1003C000FBFE0822002110A801F0F6FE1C220021ED
:1003D00009A801F0F1FE2022002101A801F0ECFEA5
:1003E0001E4D1F4B2B6000246C60AC60FA239B00F9
:1003F000EB602C616C61AC61280001F0B7FB8023DD
:100400005B01129312A9280001F0AAFC280001F058
:10041000C7FB1094119410A9280001F013FD60236C
:1004200009930A940B940C940D940E940F9400224B
:1004300009A9280001F012FC019402940394049489
:10044000059480239B010693089401A9280001F0DC
:100450002FFD280000F0F6F917B030BD7400002021
:10046000002C014030B591B01C22002109A801F0F8
:10047000A3FE2022002101A801F09EFE194D1A4B77
:100480002B600A236B600024AC60FA239B00EB60B6
:100490002C616C61AC61280001F068FB280001F060
:1004A0007FFB602309939533FF330A930B940C94DD
:1004B0000D940E940F94002209A9280001F0CEFBA0
:1004C0000194029403940494059480239B01069361
:1004D000089401A9280001F0EBFC280000F0B2F913
:1004E00011B030BD980300200044014010B5104801
:1004F000104B036080235B05436080235B048360B3
:1005000001220273202303610023436180218901BA
:100510008161C021C16103624362836294394354A3
:10052000263901634363826301F00AFD10BDC046B2
:100530001C0400200040024010B50748074B036030
:1005400008234360063B8360036100238361C3612A
:10055000036201F065FD10BD18010020005C004041
:10056000F8B50700002400E00134A7421BDD802617
:10057000B6010D4D01223100280001F04EF8002295
:100580003100280001F049F8172CEDDC8021C90169
:10059000280001F03BF818231B1B9840034B1A68F6
:1005A00010431860E0E7F8BD000400488C03002009
:1005B00010B598B0302200210CA801F0FDFD1022EA
:1005C000002107A801F0F8FD1C220021684601F077
:1005D000F3FD20230B931F3B13930BA800F0B8FAF5
:1005E00007230793043B0893002409940A940121EC
:1005F00007A800F097FD80239B02009306946846AD
:1006000000F030FE18B010BD10B500F0FFFEFFF78F
:10061000CFFFFFF705FEFFF771FEFFF787FEFFF73D
:10062000A7FEFFF7C7FEFFF71DFFFFF75FFFFFF70E
:1006300083FF8021002289010E4800F0EEFF09E0CF
:10064000012000F005FF0C4B5A7A8021490109482E
:1006500000F0E3FF80210902064800F0D7FF0028E0
:10066000EED11930FFF77CFF90208021C00500F00B
:10067000DAFFEFE7000400488C03002010B590205B
:100680008021C00500F0CFFF642000F0E1FEF6E716
:100690007047FEE77047704710B500F0C7FE10BD09
:1006A00010B5024801F0A2FC10BDC0461C04002099
:1006B00010B5024800F0FCFF10BDC046D803002072
:1006C00082B00A4B996901221143996199690A40E4
:1006D0000092009ADA69802149050A43DA61DB69F0
:1006E0000B400193019B02B07047C04600100240CE
:1006F00010B588B004001422002103A801F05CFDAD
:100700002268134B9A4201D008B010BD114C6269A7
:100710008021C9020A43626163690B400193019B16
:10072000C0231B01039312230493113B059303225F
:100730000692079303A9084800F09CFEE269802115
:10074000C9030A43E261E3690B400293029BDBE7C2
:1007500000580040001002400004004830B589B045
:1007600004001422002103A801F026FD1D4B22687D
:100770009A4201D009B030BD1B4B9A6980256D01AA
:100780002A439A619A692A400192019A5A69802102
:10079000C9020A435A615B690B400293029B2823FA
:1007A0000393263B04930133069303A90F4800F0FB
:1007B00061FE0F480F4B03601023436000238360EA
:1007C0008022C260036143618361C56100F048FF1C
:1007D000002803D1064B63655C62CBE7FFF74EFF51
:1007E000F8E7C04600300140001002400004004815
:1007F000D80300203000024082B003680E4A9342C2
:1008000004D00E4A93420CD002B070470C4A916952
:100810008020000101439161936903400093009B94
:10082000F2E7074A91698020800201439161936950
:1008300003400193019BE7E7002C01400044014085
:100840000010024010B588B004001422002103A853
:1008500001F0B2FC2368194A934204D0184A93422B
:1008600017D008B010BD174A51698020800201439B
:100870005161536903400193019B80235B00039303
:10088000FE3B04930793902003A9C00500F0F2FDFE
:10089000E7E70C4A51698020C00201435161536966
:1008A00003400293029B80235B000393FE3B04936F
:1008B000079303A9044800F0DDFDD2E7002C0140B6
:1008C00000440140001002400004004830B589B0E7
:1008D00004001422002103A801F06EFC22681C4BC6
:1008E0009A4201D009B030BD1A4B596980204004AA
:1008F000014359615A6902400192019A5A69802163
:1009000089020A435A615B690B400293029B0123EF
:10091000039311330493032507959024E40503A959
:10092000200000F0A7FD06230393043B049300235B
:1009300005930693079503A9200000F09BFD002274
:100940000021082000F00AFF082000F039FFC9E765
:10095000004002400010024082B00268074B9A42F9
:1009600001D002B07047064AD169802000040143DB
:10097000D161D36903400193019BF2E7005C004021
:10098000001002404022835A02490B439BB283521B
:100990000020704780BFFFFF4022835A02490B406E
:1009A000835200207047C0467F40000084B010B5DD
:1009B0000391049205934022012383520023835222
:1009C000043283520C328352FFF7DCFF002010BC4C
:1009D00008BC04B01847000010B5041E59D04123CC
:1009E000C35C002B43D041232422E25422681368C5
:1009F00001218B4313602268274B61680B40136110
:100A00002268936825490B409360E368012B34D03A
:100A1000226884231B02A1680B439360E368022BC6
:100A200032D0226851681E4B0B4353602268D36852
:100A30001A490B40D360236962691343A269120209
:100A400021681343CB602268E369216A0B4313607A
:100A50002268136801210B43136000236364412261
:100A60001F31A15423630132A354002010BD403331
:100A70000022C254FFF73CFEB5E7226880231B0228
:100A8000A1680B439360C9E72368802212015A6072
:100A9000C7E70120EAE7C046FFFFFFF0FF7FFFFF47
:100AA00000800002F0B54123C35C202B20D120330D
:100AB000C35C012B1ED04024012202554125242372
:100AC00043550668336893433360066833680A4FBA
:100AD0003B403360066833681943316001680B6836
:100AE00013430B602023435500230355002000E0EF
:100AF0000220F0BD0220FCE7FFEFFFFFF0B541232D
:100B0000C35C202B1ED12033C35C012B1CD040249E
:100B10000122025541252423435506683368934337
:100B2000336006683368094F3B400902194331605E
:100B300001680B6813430B602023435500230355C2
:100B4000002000E00220F0BD0220FCE7FFF0FFFFE4
:100B500070B582B0041E00D185E20368DB072BD597
:100B6000B34B5A680C231340042B1DD0B04B5A686A
:100B70000C231340082B0ED06368012B41D0002BAF
:100B800056D1AB4B1A68AB490A401A601A68AA4999
:100B90000A401A603BE0A64B5B68C0225202134039
:100BA000802252029342E7D1A14B1B689B0303D5DD
:100BB0006368002B00D159E223689B0778D59C4BD2
:100BC0005B680C221A4262D0994B5A680C2313407E
:100BD000082B53D0E368002B00D18BE0944A1368B4
:100BE00001210B43136000F02DFC0500904B1B68A6
:100BF0009B0776D400F026FC401B0228F6D9032080
:100C000032E28B4A116880235B020B4313606368F6
:100C1000002B25D000F016FC0500854B1B689B03BC
:100C2000CAD400F00FFC401B6428F6D903201BE255
:100C3000052B09D07E4B1A687E490A401A601A6853
:100C40007D490A401A60E2E7794B19688022D20296
:100C50000A431A601968802252020A431A60D6E7D2
:100C600000F0F0FB0500724B1B689B03A4D500F05D
:100C7000E9FB401B6428F6D90320F5E16C4B5B6867
:100C8000C02252021340802212029342A2D1684B2A
:100C90001B689B0704D5E368012B01D00120E3E129
:100CA00063490B68F82293432269D20013430B6017
:100CB00023681B0744D5E369002B2ED05C4A536A96
:100CC00001210B43536200F0BDFB0500584B5B6AEA
:100CD0009B0735D400F0B6FB401B0228F6D9032051
:100CE000C2E153490B68F82293432269D2001343AF
:100CF0000B60DDE74E4A136801218B43136000F05F
:100D0000A1FB05004A4B1B689B07D1D500F09AFB5D
:100D1000401B0228F6D90320A6E1454A536A012167
:100D20008B43536200F08EFB0500414B5B6A9B07CF
:100D300006D500F087FB401B0228F6D9032093E17B
:100D400023685B0700D47FE0394BDB69DB001DD4EF
:100D5000374AD169802040050143D161D3690340FE
:100D60000193019B0125354B1B68DB0510D5A3685A
:100D7000012B21D0002B36D12D4B1A6A01218A4339
:100D80001A621A6A03318A431A621AE00025EAE7F6
:100D90002A4A116880235B000B43136000F052FB6A
:100DA0000600264B1B68DB05E1D400F04BFB801BE3
:100DB0006428F6D9032057E11D4A136A01210B4329
:100DC0001362A368002B24D000F03CFB0600184BF4
:100DD0001B6A9B0736D400F035FB801B184B9842EA
:100DE000F5D9032040E1052B09D0114B1A6A0121E6
:100DF0008A431A621A6A03318A431A62E1E70C4B8A
:100E00001A6A04210A431A621A6A03390A431A62E7
:100E1000D7E700F017FB0600054B1B6A9B0711D5AF
:100E200000F010FB801B064B9842F5D903201BE114
:100E300000100240FFFFFEFFFFFFFBFF00700040BD
:100E400088130000012D3AD02368DB0610D56369B2
:100E5000012B3AD0053358D1884A536B04218B4378
:100E60005363536BF4318B43A169C9000B43536344
:100E700023689B0600D482E0804B5A680C23134001
:100E80000C2B60D07D4B5A680C231340082B53D099
:100E9000236A002B60D0794A516B80235B020B439D
:100EA000536300F0CFFA0500744B5B6BDB0366D431
:100EB00000F0C8FA401B0228F6D90320D4E06F4A9C
:100EC000D3696F490B40D361BEE76C4B5A6B042169
:100ED0000A435A635A6B03390A435A6300F0B2FA61
:100EE0000500664B5B6B9B0706D400F0ABFA401B1A
:100EF0000228F6D90320B7E060494B6BF8229343F0
:100F0000A269D20013434B63B2E75C4B5A6B0421D6
:100F10000A435A635A6B03398A435A6300F092FAC0
:100F20000500564B5B6B9B07A2D500F08BFA401B6C
:100F30000228F6D9032097E0504B5B68C02252028A
:100F400013409342A4D14D4B5B6BDB0317D5236A4F
:100F5000012B14D0012087E0484A536B49490B40CC
:100F6000536300F06FFA0500444B5B6BDB0306D55F
:100F700000F068FA401B0228F6D9032074E0636A87
:100F8000002B00D174E03D4A51680C220A40082A27
:100F90004DD0022B12D0394A13683B490B401360E5
:100FA00000F050FA0400354B1B689B013DD500F062
:100FB00049FA001B0228F6D9032055E02F4A13688E
:100FC00031490B40136000F03DFA05002B4B1B68C4
:100FD0009B0106D500F036FA401B0228F6D9032003
:100FE00042E0264BDA6A0F218A43216B0A43DA6218
:100FF0005A6826490A40E16AA06A01430A435A60D6
:101000001968802252040A431A6000F01BFA040097
:101010001A4B1B689B0106D400F014FA001B02282F
:10102000F6D9032020E000201EE000201CE0012B68
:1010300020D0124B5A68D96AC0235B021340A06AC1
:10104000834201D001200FE00F230B40216B8B4224
:1010500001D0012008E0F0239B031A40E36A9A4282
:101060000AD0012000E0012002B070BD0120FBE7A2
:101070000020F9E70120F7E70020F5E70010024023
:10108000FFFFFFEFFFFFFEFFFFFFFFFEFF7FC2FF3F
:1010900030B589B004AA1F4B180032C832C2110003
:1010A00002680A606A46103313CB13C21B681360D0
:1010B000194B5A680C231340082B04D00C2B26D054
:1010C000164809B030BD910C0F23194004A8445CA8
:1010D0001149C96A0B406946C95CC0235B021A40CA
:1010E00080235B029A4208D0C0235B029A4209D057
:1010F0000A48FFF709F86043E3E70848FFF704F8F8
:101100006043DEE70648FEF7FFFF6043D9E7044887
:10111000D7E7C046E02100080010024000127A0024
:10112000006CDC0270B504000D00002800D189E0DD
:10113000464B1A68012313408B420BD243490B687C
:10114000012293432B430B600B681A40AA4201D043
:10115000012078E023689A070ED55B0705D53C4A45
:101160005168E023DB000B435360394A5368F02198
:101170008B43A1680B4353602368DB0735D5636855
:10118000012B09D0022B24D0032B28D0304A12681F
:10119000920705D4012056E02D4A1268920353D5D8
:1011A0002B494A680320824313434B6000F04AF9FD
:1011B0000600274B5B680C221A4063689B009A422A
:1011C00013D000F03FF9801B224B9842F1D9032045
:1011D00039E01F4A12689201E2D4012033E01C4A30
:1011E000526BD203DCD401202DE0184B1A68012386
:1011F0001340AB420BD915490B68012293432B4393
:101200000B600B681A40AA4201D001201BE0236842
:101210005B0706D50E4A53680F490B40E1680B4344
:101220005360FFF735FF0A4B5A6812090F2313402A
:101230000A4AD35CD8400A4B1860002000F0BEF880
:10124000002000E0012070BD0120FCE700200240EA
:101250000010024088130000FFF8FFFF0022000882
:101260000800002070B582B004000368DB0335D5A8
:101270004B4BDB69DB0066D4494AD16980204005CD
:101280000143D161D36903400193019B0125454B83
:101290001B68DB0559D5424B1B6AC02292001340E4
:1012A00013D061680A409A420FD03D4B186A3E4AFB
:1012B00002401E6A8021490231431962196A3B4E7D
:1012C000314019621A62C30753D4354A136A36494A
:1012D0000B4061680B431362012D59D02368DB0773
:1012E00006D52F4A136B03218B43A1680B4313636D
:1012F00023689B0706D52A4A136B2D490B40E168EA
:101300000B43136323689B0606D5254A136B1021F4
:101310008B4321690B43136323689B0306D5204A43
:10132000136B80218B43A1690B43136323685B0517
:1013300033D51B4A136B40218B4361690B43136305
:10134000002002B070BD0025A1E7164A1168802375
:101350005B000B43136000F075F80600114B1B682F
:10136000DB0598D400F06EF8801B6428F6D90320C2
:10137000E7E700F067F80600094B1B6A9B07A4D457
:1013800000F060F8801B0B4B9842F5D90320D8E79A
:10139000D36909490B40D361A0E70020D1E7C046DB
:1013A0000010024000700040FFFCFFFFFFFFFEFF47
:1013B000FFFFFCFF88130000FFFFFFEF10B50400E4
:1013C0000F4B1978FA208000FEF79EFE01000D4BAE
:1013D0001868FEF799FE00F0FFF900280DD1032CE4
:1013E00001D901200AE0013000222100404200F032
:1013F000B5F9054B1C60002000E0012010BDC0467F
:1014000000000020080000200400002010B5064A5B
:10141000136810210B4313600020FFF7CFFFFFF785
:101420004FF9002010BDC04600200240034A116859
:10143000034B1B785B1813607047C04660040020A4
:1014400000000020014B18687047C046600400206F
:1014500070B50400FFF7F6FF0500631C02D0044BD3
:101460001B78E418FFF7EEFF401BA042FAD370BDD3
:1014700000000020F0B5C64600B582B0002338E079
:10148000042600E00026AE4035003D430234A400AF
:10149000574EA551574C25684246D4432E0026404E
:1014A0004A68D20302D5424615432E00514D2E60A4
:1014B0006D682E0026404A68920302D542461543C5
:1014C0002E004C4D6E60AD682E0026404A68D20258
:1014D00002D5424615432E00464DAE60ED682C40C5
:1014E0004A68920202D542462A431400414AD46017
:1014F00001330A681400DC4076D001259D402A4063
:101500009046F5D04C68022C01D0122C0ED1DC088C
:101510000834A400275807261E40B6000F22B24008
:1015200097430A69B24016003E43265002685F00A6
:1015300003242600BE40F643324094464A681440D5
:10154000BC406246144304604C68621E012A03D901
:10155000112C01D0122C10D184683440A446CC68E0
:10156000BC406246144384604468AC434A68120934
:10157000012515409D4025434560C46826408C6880
:10158000BC403443C4604A68D200B1D51A4DAE693C
:1015900001242643AE61AD692C400194019C9C0856
:1015A000A51CAD00124EAF5903261E40B5000F26F4
:1015B000AE40B7439026F605B04200D162E70F4E29
:1015C000B0420BD00E4EB0420AD00E4EB04209D0FF
:1015D0000D4EB04200D153E7052654E7012652E7ED
:1015E000022650E703264EE702B004BC9046F0BD49
:1015F00000000140000401400010024000040048C7
:1016000000080048000C00480010004803690B4225
:1016100001D1002070470120FCE7002A01D181623E
:1016200070478161FCE74369194201D181617047CC
:1016300009048161FBE7000010B504000368064A55
:101640009446634418001421FEF75EFD8000206478
:10165000024BE36310BDC046F8FFFDBF000002402F
:1016600070B5041E20D021250223435501680B6864
:101670000E4A1A40436880680343E06803432069C8
:10168000034360690343A0690343E06903431343D1
:101690000B602000FFF7D0FF0023A36301226255F7
:1016A0001F32A354002070BD0120FCE70FC0FFFFD4
:1016B00070B5C36B1A6804682568016C04238B40FD
:1016C0001A4212D06B0710D523689B0603D42368F7
:1016D000042293432360C26B0423016C8B4053604C
:1016E000C36A002B00D0984770BD02238B401A427A
:1016F00018D0AB0716D523689B0606D423680A22A8
:10170000934323602123093AC254C26B0223016C24
:101710008B40536020230022C254836A002BE3D005
:101720009847E1E708238B401A42DDD02B07DBD531
:1017300023680E2293432360C26B01231900046CBB
:10174000A14051608363212283541F330022C2547D
:10175000036B002BC8D09847C6E7000070B500287F
:1017600011DB8308144DC0339B005C5903221040E9
:10177000C000FC3216008640B44389010A40824012
:1017800022435A5170BDC0B20F230340083B9B084F
:1017900006339B00094A944663445D680324204055
:1017A000C000FF2214008440A543890111408140FC
:1017B00029435960E6E7C04600E100E000ED00E0A3
:1017C000002805DB1F2318401E3B8340014A13609D
:1017D0007047C04600E100E001380A4B98420FD83C
:1017E000094A50600948036A1B021B0AC021090606
:1017F0000B4303620023936007331360002070479C
:101800000120FCE7FFFFFF0010E000E000ED00E03A
:1018100010B5041E5ED0002383625D33C35C002BD1
:101820004CD05D230222E2542268136840218B438E
:101830001360E368E022D200934245D90022F021F0
:1018400009018B4205D0E021C9008B4201D0002163
:10185000A162216B002905D1E021C9008B4236D954
:10186000022323636368A1680B4321690B43616909
:101870000B4380218900A06901400B43E1690B43C0
:10188000216A0B432168A06A03430B60618B042328
:101890000B40616A0B43616B0B43E1680B432168AA
:1018A00013434B602268D3690B490B40D36100237B
:1018B00023665D330122E254002010BD5C33002218
:1018C000C254FEF74BFFACE780225201B7E7012379
:1018D0002363C7E70120F0E7FFF7FFFF30B5036A96
:1018E000012293430362036A426884697325AC430F
:1018F0000D682C430225AB438D682B43144DA84241
:1019000008D0144DA84205D0134DA84202D0134D63
:10191000A84205D10825AB43CD682B430425AB4332
:101920000B4DA84208D00B4DA84205D00A4DA84245
:1019300002D00A4DA84205D1094D2A404D692A43DB
:101940008D692A43426084614A684263036230BD04
:10195000002C01400040014000440140004801408B
:10196000FFFCFFFF70B5036A194A13400362036A64
:101970004268C4697325AC430E682643154C234066
:101980008C6824022343144CA04219D0124CA0426C
:1019900008D0124CA04205D0114CA04202D0114CEC
:1019A000A04207D1104C14404A69120122438C69AD
:1019B00025012A434260C6614A68C263036270BD62
:1019C0000A4C1C40CB681B022343094C2340DDE733
:1019D000FFFEFFFFFFFDFFFF002C01400040014024
:1019E0000044014000480140FFCFFFFFFFF7FFFF29
:1019F000FFFBFFFF30B5036A134A13400362026A1C
:101A00004368C469114D2C400D682D022C43104DC4
:101A100015408A6812032A430E4DA84208D00E4D85
:101A2000A84205D00D4DA84202D00D4DA84204D1C8
:101A30000C4D2B404D69AD012B434360C4614B6895
:101A40000364026230BDC046FFEFFFFFFF8CFFFF63
:101A5000FFDFFFFF002C0140004001400044014037
:101A600000480140FFBFFFFF30B5036A046A01254B
:101A7000AC4304628469EF35AC43120122430A246B
:101A8000A34319438261016230BD000030B5036A8F
:101A90001024A34303628469036A054D2C4012039A
:101AA0002243A024A343090119438261016230BD8E
:101AB000FF0FFFFF0B00816870229143194307233A
:101AC00019438160704770470368214A904206D0ED
:101AD0008022D205904202D01E4A904203D1702249
:101AE00093434A6813431A4A904212D08022D20587
:101AF00090420ED0174A90420BD0174A904208D01D
:101B0000164A904205D0164A904202D0154A904299
:101B100003D1154A1340CA681343802293434A698C
:101B2000134303608B68C3620B688362084B98425F
:101B300008D00A4B984205D0094B984202D0094B75
:101B4000984201D10B690363012343617047C0468A
:101B5000002C0140000400400020004000400140F3
:101B60000044014000480140FFFCFFFF70B5041E27
:101B700014D03D23C35C002B0AD03D2502236355BE
:101B8000211D2068FFF7A0FF01236355002070BDD1
:101B90003C330022C254FEF72FFEEEE70120F6E7A9
:101BA00070B5041E14D03D23C35C002B0AD03D2524
:101BB00002236355211D2068FFF786FF012363552B
:101BC000002070BD3C330022C254FFF77CFFEEE7DB
:101BD0000120F6E770B5036A102293430362036A9B
:101BE00042688469174D2C400D682D02254320243E
:101BF000A3438C6824012343134CA04219D0124CF8
:101C0000A04208D0114CA04205D0114CA04202D0F5
:101C1000104CA04207D1104C14404A699200224354
:101C20008C69A6003243426085614A688263036220
:101C300070BD8024A3431C00CB681B0123434024B8
:101C4000A343DCE7FF8CFFFF002C01400040014074
:101C50000044014000480140FFF3FFFF70B504005D
:101C60000D003C23C35C012B69D03C230121C154EE
:101C700001330131C154042A37D019D9082A4AD076
:101C80000C2A2AD129000068FFF7B4FE2268D16926
:101C900080231B010B43D3612268D36929490B4080
:101CA000D3612168CB692A6912021343CB6114E026
:101CB000002A12D129000068FFF710FE22689369FC
:101CC00008210B4393612268936904398B43936124
:101CD0002268936929690B4393613D230122E254F1
:101CE000013B0022E254002070BD29000068FFF78C
:101CF00071FF2268916980231B010B439361226865
:101D0000936910490B40936121688B692A6912021B
:101D100013438B61E1E729000068FFF723FE226887
:101D2000D36908210B43D3612268D36904398B43FB
:101D3000D3612268D36929690B43D361CDE70220BF
:101D4000D2E7C046FFFBFFFF30B58468034D2C404F
:101D50001B021A4311432143816030BDFF00FFFF86
:101D600010B504003C23C35C012B66D03C23012248
:101D7000C25401330132C2540268936830480340B0
:101D800093600B68402B4ED015D9602B41D021D9E0
:101D9000702B2BD080229201934232D1CB684A68BB
:101DA00089682068FFF7D0FF226891688023DB01F3
:101DB0000B43936025E0102B07D004D9202B04D0CF
:101DC000302B02D01DE0002B1BD119002068FFF73B
:101DD00071FE16E0502B14D1CA6849682068FFF7DD
:101DE00043FE50212068FFF765FE0AE0CB684A6891
:101DF00089682068FFF7A8FF2268936877210B4362
:101E000093603D230122E254013B0022E254002072
:101E100010BDCA6849682068FFF738FE6021206855
:101E2000FFF748FEEDE7CA6849682068FFF71CFE27
:101E300040212068FFF73EFEE3E70220E8E7C046C6
:101E40008800FFFF30B53C23C35C012B28D03C2326
:101E50000122C25401330132C25403685A689C689B
:101E60007025AA430D682A435A6003680D4A9342BD
:101E700009D08022D205934205D00B4A934202D06A
:101E80000A4A934204D1802294434A6814439C60D6
:101E90003D230122C254013B0022C254002030BD28
:101EA0000220FCE7002C01400004004000400140FB
:101EB00010B53C23C35C012B21D03C220123835469
:101EC000104BCC6823408C6823430F4C23404C6854
:101ED00023430E4C23400C6823430D4C23400C69D4
:101EE00023430C4C23404C6923430B4C2340C969CA
:101EF0000B4301684B6400238354002010BD022073
:101F0000FCE7C046FFFCFFFFFFFBFFFFFFF7FFFF03
:101F1000FFEFFFFFFFDFFFFFFFBFFFFF10B5040074
:101F20000023002000E00133072B08D899000F227E
:101F30008A401442F7D001229A401043F3E710BDC3
:101F400070B5041E4ED03C23C35C002B3DD03C2317
:101F50000222E2542368013A1A602068026863682A
:101F6000A1680B43216949040B4361690B43A169D3
:101F70000B43E1690B43616A0B43A16A0B431343B3
:101F80000360237B012B26D0236B626B1343A26B70
:101F900013432268DB4313612268236B616B0B439D
:101FA00093622368A26B1A622568206BFFF7B6FF65
:101FB000286321684B68032293434B6023689A602F
:101FC0003C23023AE254002070BD3D330022C2544B
:101FD000FEF77CFCBBE72268116880235B020B43A1
:101FE0001360D1E70120EFE77047704710B5036831
:101FF000DA68D20701D501229A600368DA6892078D
:1020000005D43C230122C254FFF7EEFF10BD02228B
:102010009A603C230132C254FFF7E7FFF6E7000065
:1020200030B587B0041E61D0314BC35C002B07D0A4
:102030002F4B0322E2542068FEF7AEFC00231AE087
:102040008A239B000022C254FEF786FCF0E75A0167
:10205000A218110029310120087001390B70D386B4
:1020600010002B30002101709163D1639A1C520142
:1020700011510133DBB260688342E8D3002215E0DE
:102080005301E3181D002A35FF3500212970013D59
:102090002A70033529700D3529603D33FF331960EF
:1020A00013000A335B0119510132D2B29042E7D8D2
:1020B0006A462300103323CB23C203CB03C26168DB
:1020C000A268E3682068FEF771FC24230022E25432
:1020D000074B0132E254E369012B02D0002007B024
:1020E00030BD200000F006F80020F8E70120F6E7F8
:1020F0002902000002689A239B000121C150083B7D
:102100000021C1545423D15A01200143D152D15A44
:1021100002200143D1520020704770470D48854688
:102120000D480E490E4A002302E0D458C45004332F
:10213000C4188C42F9D30B4A0B4C002301E0136006
:102140000432A242FBD3FFF7E8FF00F011F8FEF7DC
:102150005BFAFEE700400020000000200C00002099
:10216000182200080C00002064040020FEE7000094
:1021700070B500260C4D0D4C641BA410A64209D16D
:10218000002600F021F80A4D0A4C641BA410A64258
:1021900005D170BDB300EB5898470136EEE7B300A8
:1021A000EB5898470136F2E7102200081022000889
:1021B000102200081422000803001218934200D1D4
:1021C000704719700133F9E7F8B5C046F8BC08BC90
:1021D0009E467047F8B5C046F8BC08BC9E4670479E
:1021E00002030405060708090A0B0C0D0E0F101058
:1021F0000102030405060708090A0B0C0D0E0F1057
:1022000000000000000000000102030406070809A6
:04221000E9000008D9
:04221400C1000008FD
:0C221800010000000400000000127A0029
:040000050800211DB1
:00000001FF
